:020000040200F8
:10200000001F1240A1300002F5300002253000020E
:10201000F9300002FB300002FD3000020000000039
:10202000000000000000000000000000D1010020BE
:102030000131000200000000E1010020C101002088
:10204000073100020731000229400002713C000202
:10205000613C0002754000026540000255400002EC
:10206000B54000029D3E0002153C0002AF21002059
:10207000791F002007310002293C000209400002BC
:10208000394000028D3D000295400002854000026B
:102090007D3D00026D3D0002393C0002BD3D000265
:1020A0006D3E0002073100029D3D0002AD3D000281
:1020B000F93F0002E93F0002D93F0002A5400002BB
:1020C000013E0002F13D000219400002BD3E000247
:1020D000AD3E00027D3E00028D3E0002CD3E00027C
:1020E000DD3E0002ED3E0002FD3E0002073100022F
:1020F0000731000207310002053C000202000424FF
:10210000008002023C4900205857020001000800EC
:10211000FFFFFFFFFFFFFFFFFFFFFFFFFFFFFFFFCF
:10212000FFFFFFFFFFFFFFFFFFFFFFFFFFFFFFFFBF
:10213000FFFFFFFFFFFFFFFFFFFFFFFFFFFFFFFFAF
:10214000FFFFFFFFFFFFFFFFFFFFFFFFFFFFFFFF9F
:1030000000200002DFF810D000F068F90048004707
:1030100069D40102AFF300803C49002032B58047FB
:1030200032BD00BF1EF0040F0CBFEFF30880EFF3BA
:10303000098081694DF61D52C0F20122104700B58A
:103040001A4422F0030203460F480068C0050ED15F
:10305000EFF3148080070AD5EFF3098082F3098823
:1030600001B40846984701BC80F3098800BDEFF31E
:10307000088082F3088801B40846984701BC80F3B1
:10308000088800BD00BF000004ED00E044F62060A9
:1030900000BF401EFCD1284740BA7047C0BA7047F5
:1030A0001948016811F0010F184A18BF104721F0A4
:1030B000010101600ED01648016821F00201016093
:1030C0001448016841F48061016013488047134847
:1030D000006800470E48016821F0020101600D48B8
:1030E000016841F4806101600D4880470D48004748
:1030F0000D480047FEE7FEE7FEE7FEE7FEE7FEE7D6
:10310000FEE7FEE7FEE7FEE710011040FD000020AD
:10311000080000401C0000404164000248470020B5
:1031200089630002DD32000269D401022DE9F00357
:103130005FEA930C6FD000BF30F8024B31F8026B9E
:1031400030F8025B31F8027B14FB06F84FEA68485E
:1031500015FB07F9A8EB694822F8028B14FB07F46A
:10316000641415FB06F504EB654422F8024B30F8B5
:10317000024B31F8026B30F8025B31F8027B14FB32
:1031800006F84FEA684815FB07F9A8EB694822F8EA
:10319000028B14FB07F4641415FB06F504EB65447D
:1031A00022F8024B30F8024B31F8026B30F8025B28
:1031B00031F8027B14FB06F84FEA684815FB07F963
:1031C000A8EB694822F8028B14FB07F4641415FB82
:1031D00006F504EB654422F8024B30F8024B31F857
:1031E000026B30F8025B31F8027B14FB06F84FEA01
:1031F000684815FB07F9A8EB694822F8028B14FB15
:1032000007F4641415FB06F504EB654422F8024B41
:10321000BCF1010C90D113F0030304BFBDE8F0032F
:10322000704700BF30F8024B31F802CB30F8025B38
:1032300031F8026B14FB0CF77F1415FB06F8A7EBB3
:10324000684722F8027B14FB06F4641415FB0CFC9F
:1032500004EB6C4C22F802CB5B1EE3D1BDE8F0031B
:103260007047000000F5005000B20028BCBF00F518
:10327000004000B281090B4BA0EB8110400233F9F2
:10328000112003EB410100B2C0F5004349885A43C5
:10329000121410FB01F000EB02400014400000B2D9
:1032A000704700004C2F020281090B4BA0EB8110EC
:1032B000400233F9112003EB410100B2C0F5004395
:1032C00049885A43121410FB01F000EB024000142D
:1032D000400000B2704700004C2F0202064C074D20
:1032E00006E0E06840F0010394E8070098471034D6
:1032F000AC42F6D3FFF78AFE443902027439020267
:103300002DE9F05F0546002092469B46884606461A
:10331000814640241BE0284641464746224600F0AD
:103320006BF853465A46C01A914110D311461846BD
:10333000224600F052F82D1A67EB01084F4622464C
:103340000120002100F049F817EB00094E41201E32
:10335000A4F10104DFDC484631462A464346BDE875
:10336000F09FD2B201E000F8012B491EFBD270475A
:103370000022F6E710B513460A4604461946FFF741
:10338000F0FF204610BD421C10F8011B0029FBD1A4
:10339000801A704730B504460020034600E05B1CED
:1033A000934203D2E05CCD5C401BF8D030BD30B519
:1033B0000B46014600202022012409E021FA02F5F3
:1033C0009D4205D303FA02F5491B04FA02F528448D
:1033D000151EA2F10102F1DC30BD202A04DB203AE7
:1033E00000FA02F1002070479140C2F1200320FA58
:1033F00003F3194390407047202A04DB203A21FA56
:1034000002F00021704721FA02F3D040C2F12002FD
:1034100091400843194670472DE9FE4F804681EAE6
:103420000300C00F0C46009021F0004123F000453E
:10343000B8EB0200A94105D24046214690461C4601
:103440000B46024623F00040104347D0270DC7F338
:103450000A00C3F30A510290401A019040286BDA27
:10346000C3F3130040F4801B0098924620B1002360
:10347000D2EB030A63EB0B0B01985946C0F14002F3
:103480005046FFF7AAFF06460D4650465946019A98
:1034900000F07AF910EB08006141002487EA11522C
:1034A00084EAE7731A4340D0009A62B3019A012A72
:1034B0004FEA075215DC001B61EB02014FF000429E
:1034C00002EA0752CDE90042001C41F58011324664
:1034D0002B4600F07AF903B0BDE8F08F4046214654
:1034E000F9E7001B61EB0201001C41F58013001895
:1034F0005B412018A2F5001747EB030140EAD570A5
:10350000B6196D4111E06D084FEA360645EAC075FF
:103510004FEA0752001B61EB0201001C41F58011CC
:1035200049084FEA30000019514132462B4603B09A
:10353000BDE8F04F00F03AB90098012240000023A6
:10354000D0EB020263EBE073009821464FEAE0748F
:10355000B8EB000061EB0401E9E783F000435BE7AF
:1035600081F0004158E72DE9FE4F81EA030404F0A1
:10357000004421F0004100944FF0000B23F0004381
:1035800050EA01045ED052EA03045BD0C3F30A544C
:10359000C1F30A552C44A4F2F3340194A0FB025465
:1035A000C1F3130141F48011C3F3130343F48013F7
:1035B00001FB024400FB034E840A970A44EA81544B
:1035C00047EA8357A4FB076802958D0A05FB078528
:1035D0004FEA932C04FB0C542705029D4FEA065832
:1035E00047EA1637B5EB08056EEB070C870E920E0F
:1035F00047EA811742EA8312A7FB0201B6EB0B01EF
:1036000064EB00042B0D43EA0C335E1844EB1C50B2
:10361000DA465146E7FB0201C5F313044FEA0B33C8
:1036200043EA14534FEA0432019C43EA0603A4F12F
:103630000C040294009CCDE900B400F0C6F803B07D
:10364000BDE8F08F00200146F9E72DE9F04D81EA51
:10365000030404F0004B21F0004514464FF0000A2B
:1036600023F0004150EA050220D054EA01021DD0A7
:10367000C5F30A570246C5F31303C1F31300C1F3A0
:103680000A5640F4801543F48013A7EB0608101B7C
:10369000D64608F2FD3873EB050002D308F10108A5
:1036A00001E092185B41B8F1000F03DA00200146F7
:1036B000BDE8F08D00204FF48011064684460EE0F0
:1036C000171B73EB050705D3121B63EB05030643BA
:1036D0004CEA010C49084FEA300092185B4150EA6D
:1036E0000107EDD152EA030012D082EA040083EA16
:1036F0000501084305D0101BAB4106D2012200236F
:1037000006E000224FF0004302E06FF00102531088
:103710001AEB06004CEB085110EB0A0041EB0B01D1
:10372000BDE8F04D00F042B8C1F30A52C1F31301F5
:1037300040F2FF3341F480119A4202DA0020014640
:10374000704740F233439A42A2F2334202DC5242C3
:10375000FFF752BEFFF741BE30B5041E71F1000401
:1037600004DB4FF00044404264EB0101141E73F18E
:10377000000405DB1C464FF00043524263EB040398
:10378000994208BF904230BD202A06DBCB17203A71
:1037900041FA02F043EAE07306E041FA02F3D04056
:1037A000C2F12002914008431946704710B5141E1B
:1037B00073F1000408DA401C41F1000192185B41EA
:1037C0001A4301D120F0010010BD2DE9F04D9246C1
:1037D0009B4611B1B1FA81F202E0B0FA80F22032D8
:1037E0009046FFF7FAFD04460F4640EA0A0041EA18
:1037F0000B0153465A46084313D0114653EA0100C1
:1038000019D0C8F140025046FFF7F6FD05460E46B6
:10381000504659464246FFF7E0FD084305D00120D7
:1038200004E020463946BDE8F08D0020054346EA15
:10383000E0762C4337430A986305E40AA0EB0800BE
:103840000022FD0A44EA47540A3002D5002001460E
:10385000E9E7010510196941DDE9084500196941E9
:10386000BDE8F04DA2E770B58C1810F8015B15F0BB
:10387000070301D110F8013B2A1106D110F8012BE2
:1038800003E010F8016B01F8016B5B1EF9D12B0707
:1038900005D40023521E0DD401F8013BFAE710F8BD
:1038A000013BCB1A921C03E013F8015B01F8015BAA
:1038B000521EF9D5A142D8D3002070BD42F21D6C32
:1038C000C2F2000C604740F2112CC2F2000C6047BB
:1038D00040F28D4CC2F2000C604743F6E52CC2F278
:1038E000000C604740F2F11CC2F2000C604742F24B
:1038F000BD5CC2F2000C604742F2D95CC2F2000C1F
:10390000604742F2096CC2F2000C604742F20D2C93
:10391000C2F2000C604740F20B7CC2F2000C604720
:1039200040F2F73CC2F2000C604740F20D4CC2F28C
:10393000000C604742F2152CC2F2000C604742F2C4
:10394000616CC2F2000C604742F2672CC2F2000CBC
:10395000604740F2E16CC2F2000C604743F6E52C90
:10396000C2F2000C604743F6E52CC2F2000C60473F
:1039700040F2A54CC2F2000C604742F67F2CC2F226
:10398000000C604742F20D4CC2F2000C604742F658
:10399000A90CC2F2000C604742F6191CC2F2000CDE
:1039A000604742F2FD2CC2F2000C604742F2855C97
:1039B000C2F2000C604740F65D0CC2F2000C60479A
:1039C00040F67F0CC2F2000C604742F2FB5CC2F290
:1039D000000C604742F6FB1CC2F2000C604743F645
:1039E000C12CC2F2000C604742F2FB3CC2F2000C58
:1039F000604740F6DD0CC2F2000C604740F28F7C5D
:103A0000C2F2000C604740F62D0CC2F2000C604779
:103A100043F27F3CC2F2000C604740F6C50CC2F294
:103A2000000C604743F28F5CC2F2000C604741F625
:103A3000ED4CC2F2000C604743F2573CC2F2000C5E
:103A4000604743F64F2CC2F2000C604741F20F4C26
:103A5000C2F2000C604742F6572CC2F2000C6047DD
:103A600040F2717CC2F2000C604740F62B3CC2F27F
:103A7000000C604740F6470CC2F2000C604741F270
:103A8000D14CC2F2000C604740F6E91CC2F2000CB7
:103A9000604740F2C54CC2F2000C604740F6414C12
:103AA000C2F2000C604740F6572CC2F2000C60478F
:103AB00042F23F2CC2F2000C604740F2E54CC2F2E9
:103AC000000C604740F61F1CC2F2000C604741F238
:103AD0001B5CC2F2000C604740F6337CC2F2000C63
:103AE000604741F2B70CC2F2000C604740F6697CB7
:103AF000C2F2000C604741F2370CC2F2000C604782
:103B000041F2810CC2F2000C604741F2CB1CC2F2C0
:103B1000000C604741F25F0CC2F2000C604741F2BA
:103B20003D2CC2F2000C604741F2033CC2F2000C93
:103B3000604740F6934CC2F2000C604740F69D4C43
:103B4000C2F2000C604740F6631CC2F2000C6047F2
:103B500041F2F35CC2F2000C604740F6576CC2F2CF
:103B6000000C604742F6F33CC2F2000C604741F2A1
:103B7000096CC2F2000C604742F64D4CC2F2000CD8
:103B8000604743F2EF1CC2F2000C604740F69F0C06
:103B9000C2F2000C604742F6853CC2F2000C60475E
:103BA00042F6CD6CC2F2000C604743F6D52CC2F24F
:103BB000000C604740F2434CC2F2000C604742F2F6
:103BC000F96CC2F2000C604740F6AF6CC2F2000C18
:103BD000604741F2057CC2F2000C604741F2C97CAB
:103BE000C2F2000C604741F6C94CC2F2000C6047BB
:103BF00041F6A74CC2F2000C604743F6F55CC2F2F6
:103C0000000C604702482421C06807F09BB8000000
:103C1000783E00200348016841F020010160012046
:103C2000FFF74CBE0000134002480921C06807F0AE
:103C300089B80000783E002002481021C06807F0D3
:103C400081B80000783E0020044800680122C0F3DB
:103C500008010A20891EFFF736BE000004ED00E0CF
:103C600002480121C06807F06DB80000783E0020CE
:103C700002480221C06807F065B80000783E0020C5
:103C800010B5C368D9B280290FD98468A06800B183
:103C900001204B2213A1FFF71BFEA16819B1E068B8
:103CA000BDE81040084772B6FEE70446008A616925
:103CB00082B2D8B2124B1B68984706F01DFC002850
:103CC0000FD1E068022806D004280AD1A069BDE817
:103CD000104006F00BBCA08BA169BDE8104006F0B7
:103CE00003BC10BD4863695F696E7465726E616C78
:103CF0005F7472616E73706F72742E6300000000E7
:103D0000C03F00201FB541680A2914D007DC09B163
:103D100005291FD104B0BDE81040FFF7B1BF0B2942
:103D200019D00C2916D1018AC268406904B089B241
:103D3000BDE8104010470C491EC98DE81E00C1683F
:103D4000019141690291008AADF80C00102168468A
:103D500006F00AFA1FBD018A8AB24169C06804B040
:103D6000BDE8104008F080B89818020202480E2101
:103D7000C06806F0E7BF0000783E002002480F212F
:103D8000C06806F0DFBF0000783E002002480B212B
:103D9000C06806F0D7BF0000783E0020024812211C
:103DA000C06806F0CFBF0000783E00200248132113
:103DB000C06806F0C7BF0000783E0020024811210D
:103DC000C06806F0BFBF0000783E0020074A131D00
:103DD0005980116860F307011160106840F40070A9
:103DE000106010688005FCD4704700000804114082
:103DF00002481C21C06806F0A5BF0000783E0020E4
:103E000002481B21C06806F09DBF0000783E0020DC
:103E1000C906090E002806DA00F00F0000F1E020C4
:103E200080F8141D704700F1E02080F800147047FE
:103E3000024A1140014302480160704780FFFF1FA2
:103E400008ED00E000B589B0416803910021CDE99B
:103E50000110044869460068826903480068904779
:103E600009B000BD7C3E0020903E00200248142195
:103E7000C06806F067BF0000783E002002481521A8
:103E8000C06806F05FBF0000783E0020024816219F
:103E9000C06806F057BF0000783E002002480721A6
:103EA000C06806F04FBF0000783E002002481E2187
:103EB000C06806F047BF0000783E002002481D2180
:103EC000C06806F03FBF0000783E002002481F2176
:103ED000C06806F037BF0000783E0020024820216D
:103EE000C06806F02FBF0000783E00200248212164
:103EF000C06806F027BF0000783E0020024822215B
:103F0000C06806F01FBF0000783E00202F492E48F1
:103F1000C1F890012E48C1F894014FF400400863A5
:103F200042F2412048632B48826942F0804282611C
:103F3000026922F07F7202F540020261826922F476
:103F4000700202F580128261826942F470228261FD
:103F500082696FF30F02103282614A6A22F46012A2
:103F600002F500224A624A6A22F4F85202F500720F
:103F70004A62826922F07C5202F1C8528261D1F811
:103F8000602122F4FC0202F5B402C1F8602101684C
:103F900001680E2262F31F7101608168C90D21F072
:103FA000F00141F03002816862F3DE518160C16846
:103FB000C168022262F38A11C160016801680922A6
:103FC00062F34401016070470706020400001040DC
:103FD000010304050020104002481721C06806F0C4
:103FE000B1BE0000783E002002481821C06806F0EB
:103FF000A9BE0000783E002002481921C06806F0E2
:10400000A1BE0000783E002002480821C06806F0EA
:1040100099BE0000783E002002482321C06806F0C7
:1040200091BE0000783E002002480021C06806F0E2
:1040300089BE0000783E002002480A21C06806F0D0
:1040400081BE0000783E00200149487270470000A0
:10405000543F002002480321C06806F073BE0000F0
:10406000783E002002480421C06806F06BBE0000C4
:10407000783E002002480521C06806F063BE0000BB
:10408000783E002002480C21C06806F05BBE0000AC
:10409000783E002002480D21C06806F053BE0000A3
:1040A000783E002002481A21C06806F04BBE00008E
:1040B000783E002002480621C06806F043BE00009A
:1040C000783E00200FB4054B10B503A9044A0298AE
:1040D00000F0FEF810BC5DF814FB0000DD6C00027F
:1040E000244100200FB4084B10B504A902AA03987C
:1040F00000F0EEF8044602A9002000F097FE2046EA
:1041000010BC5DF814FB00002D4E0002014B024A6A
:1041100000F0E0BADD6C00022441002070477047D7
:1041200070477047704770477047704702E008C893
:10413000121F08C1002AFAD170477047002001E021
:1041400001C1121F002AFBD1704700002DE9FF5F5B
:1041500082B00021DDE90430020DDDF840B00343F8
:1041600018D044F61050A2F2FF32424315141198B1
:1041700001281FD0A5EB0B00401C5FEA000A4FF09E
:1041800000064E4FDFF83891B046504615D5CAF1BB
:10419000000413E0119801244AA3012801D16FEA19
:1041A0000B010298119AC0E90031C0E9024206B041
:1041B000BDE8F09FCBF10000DFE704460021404A54
:1041C000491842EB0450CDE9001012E0E00707D097
:1041D00032463B4640464946FFF7C5F98046894688
:1041E00032463B4610461946FFF7BDF906460F46D4
:1041F0006410002CEAD1DDE90401DDE90023BAF105
:10420000000F06DAFFF7AFF942464B46FFF7ABF96E
:1042100005E0FFF71AFA42464B46FFF716FA044646
:104220000E460022284BFFF797FA03D84FF0FF30D5
:10423000014607E00022254B20463146FFF7ECF807
:10424000FFF772FA102409E0002C0ADB0A2200238F
:10425000FFF756F8039B30321A55641E50EA0102EC
:10426000F2D1641C039AC4F111031444119A012A77
:1042700003D0012208430DD10AE0084304D00020F6
:104280004FF0110B119072E7A3EB0B056D1E0DE0C3
:104290005B4504DD4FF0000205F1010504E003DA9F
:1042A0004FF00002A5F10105002AECD00298119907
:1042B000C0E90231C0E9004579E700000000144080
:1042C0000000F03F300000000000F0430000E03F3D
:1042D0002DE9FF4F8DB00F460546002606E0252844
:1042E0000BD0DDE90F1290476D1C761C2878002852
:1042F000F5D111B03046BDE8F08F0024A246A146AA
:104300000122E94900E0044315F8013F203B02FA8D
:1043100003F00842F7D128782A2810D06FF02F0236
:104320002878A0F13001092914D80AEB8A0102EBA0
:10433000410144F0020400EB010A6D1CF0E701CFDB
:104340005FEA000A03D544F40054CAF1000A44F0BD
:1043500002046D1C28782E2817D115F8010F44F09F
:1043600004042A280ED06FF02F022878A0F1300123
:1043700009290AD809EB890102EB410100EB010987
:104380006D1CF2E757F8049B6D1C28786C280FD041
:1043900006DC4C2817D068280DD06A2814D104E018
:1043A000742810D07A280FD10DE044F400140AE0EC
:1043B00044F4801401E044F440146978814202D14D
:1043C00004F580146D1C6D1C28786E281ED00CDC42
:1043D000632830D004DC00288BD0582811D19FE00E
:1043E000642867D069280CD164E073282DD004DCE0
:1043F0006F2872D0702804D194E075286ED0782888
:104400006DD0DDE90F129047761C4BE1C4F30250EA
:10441000022806D0032809D0042801CF09D006605D
:1044200040E101CFF117C0E900613BE101CF068017
:1044300038E1067036E117F8040B8DF80000002013
:104440008DF80100EB46012003E057F804BB4FF064
:10445000FF3061074FF0000102D40DE008F10101C7
:10446000884649450FDA8045F8DB1BF8081000291B
:10447000F4D108E008F1010188468142FADB1BF81B
:1044800008100029F6D1DDE90F23AAEB08008146C8
:10449000214600F09DFC304400EB080604E0DDE915
:1044A0000F121BF8010B9047B8F10108F7D2214613
:1044B0004846F2E00A21C4F302524FF0000B089183
:1044C000022A04D001CFC117032A09D00AE0FF1D38
:1044D00027F00707F7E8020108E02CE01EE01FE0E4
:1044E00000B2C117042A01D140B2C117021E71F1F6
:1044F000000206DA0023D0EB030063EB01012D225A
:1045000002E0220504D52B228DF82420012203E0AD
:10451000E20701D02022F7E7904653E00A210BE0A2
:10452000102109E010214FF0000B44F004044FF07B
:104530000809089103E008214FF0000B0891C4F32B
:104540000252022A04D001CF0021032A06D006E03D
:10455000FF1D27F00707F7E8020103E080B2042AF5
:1045600000D1C0B24FF0000822072BD52A78702A5C
:1045700007D0DDF820C08CF0100C5CEA0B0C05D0E5
:104580000EE040228DF82420012208E050EA0103C9
:1045900006D030238DF824308DF825200222904655
:1045A000089B83F0080353EA0B030BD150EA010286
:1045B00001D1620706D530228DF824204FF0010882
:1045C000A9F101092A78582A04D038A20B9208AA26
:1045D0000A920BE03AA2F9E75B46089AFEF790FED2
:1045E0000B9B9B5C0A9A521E0A92137050EA0102BE
:1045F000F2D10A98ADEB000000F1200B600702D564
:1046000024F4803401E04FF00109D94502DDA9EB23
:104610000B0000E0002000EB0B0141440890AAEBE6
:10462000010AE00306D4DDE90F232146504600F0DD
:10463000CFFB06444FF0000908E009A911F8090072
:10464000DDE90F12904709F10109761CC145F4DB41
:10465000E0030CD5DDE90F232146504600F0B8FBFE
:10466000064404E0DDE90F1230209047761C0899DB
:10467000481E08900029F5DC08E00A980A9900789D
:10468000491C0A91DDE90F129047761CBBF100012D
:10469000ABF1010BF1DC21465046DDE90F2300F0C0
:1046A00073FB06446D1C21E60928010030313233CA
:1046B000343536373839616263646566000000005E
:1046C0003031323334353637383941424344454648
:1046D000000000002DE9FF4F95B09A468846064637
:1046E0000025EEE1252877D100242746F94A01214B
:1046F000039400E0044316F8013F203B01FA03F065
:104700001042F7D130782A2811D06FF02F0330787B
:10471000A0F13002092A16D8039A44F0020402EBF1
:10472000820203EB42021044761C0390EFE758F834
:10473000042B0392002A03DA504244F400540390FD
:1047400044F00204761C30782E2816D116F8010F9A
:1047500044F004042A280DD06FF02F023078A0F125
:104760003003092B09D807EB870302EB4303C71873
:10477000761CF3E758F8047B761C30786C280FD051
:1047800006DC4C2817D068280DD06A2814D104E024
:10479000742810D07A280FD10DE044F400140AE0F8
:1047A00044F4801401E044F440147278824202D14F
:1047B00004F58014761C761C307866280BD013DC48
:1047C000582877D009DC002875D04528F6D046282F
:1047D000F4D047281AD193E118E0632835D0642833
:1047E00079D0652812D18BE1702873D008DC672856
:1047F000F1D069286FD06E280DD06F2806D1ACE0BB
:1048000073282CD0752874D0782853D05246179925
:1048100090476D1C54E1C4F30250022809D00328CC
:104820000DD0D8F8001004280DD00D6008F1040850
:1048300046E1D8F80010EA17C1E90052F6E7D8F8C7
:1048400000100D80F2E70D70F0E718F8041B8DF8EA
:10485000001000208DF80100EB46012003E058F81D
:1048600004BB4FF0FF3061074FF0000102D40DE0B0
:1048700009F101018946B9420FDA8145F8DB1BF8DD
:1048800009100029F4D108E009F1010189468142AB
:10489000FADB1BF809100029F6D103985346A0EB68
:1048A000090721463846179A00F0A9FA284400EB78
:1048B000090507E044E008E10DE01BF8010B524652
:1048C00017999047B9F10109F7D253462146384666
:1048D000179AF2E039E00A21C4F302524FF0000BBC
:1048E0000091022A06D058F8040BC117032A09D0F8
:1048F0000AE023E008F1070020F00702F2E80201D5
:10490000904605E000B2C117042A01D140B2C11798
:10491000002906DA0A460021404261EB02012D22FD
:1049200002E0220504D52B228DF80420012203E0A9
:10493000E20701D02022F7E7914657E00A2100E084
:1049400010214FF0000B00910BE010214FF0000BF5
:1049500044F004040827009103E008204FF0000B06
:104960000090C4F30252022A05D058F8040B00212B
:10497000032A08D008E008F1070020F00702F2E857
:104980000201904603E080B2042A00D1C0B24FF089
:10499000000922072AD53278702A07D0DDF800C036
:1049A0008CF0100C5CEA0B0C05D00EE040228DF868
:1049B0000420012208E050EA010306D030238DF8DC
:1049C00004308DF8052002229146009B83F00803F5
:1049D00053EA0B030AD150EA010201D1620705D55F
:1049E00030228DF804204FF001097F1E3278582ABA
:1049F00004D039A20C920CAA02920BE03BA2F9E778
:104A00005B46009AFEF77CFC0C9B9B5C029A521E54
:104A10000292137050EA0102F2D1029804A9081A16
:104A200000F1200B600702D524F4803400E0012758
:104A30005F4502DDA7EB0B0000E0002000EB0B015F
:104A4000009003984944401A0390E00306D453466B
:104A50002146179A039800F0D2F90544002706E092
:104A600001A85246C05D179990476D1C7F1C4F45A9
:104A7000F6DBE0030CD553462146179A039800F065
:104A8000BEF9054404E030205246179990476D1C4A
:104A90000099481E00900029F5DC08E00298029970
:104AA00052460078491C0291179990476D1CBBF142
:104AB0000001ABF1010BF1DC5BE100F077F905449B
:104AC000761C307800287FF40DAE19B02846BDE87A
:104AD000F08F000009280100303132333435363789
:104AE000383961626364656600000000303132333A
:104AF00034353637383941424344454600000000DA
:104B0000600700D4062708F1070020F00700F0E84E
:104B10000223804603F0004C5FEA0C0001D097A00E
:104B200009E0200501D596A005E0E00701D095A099
:104B300001E0AFF24C001390307823F00043652879
:104B40000CD006DC452809D046281DD047287FD147
:104B50003BE0662818D067287AD136E00021112F73
:104B600001DB112000E0781CCDE9000104A90CA8AC
:104B7000FFF7ECFADDE90D010C9A4FF0000B07F19D
:104B80000109109200914EE04FF000400097CDE9EE
:104B9000011004A90CA8FFF7D9FADDE90D020C9B5E
:104BA0000F994FF0000B91461093009211B9791CA8
:104BB00000EB0109B7EB090003D4C0F1FF3B07F19B
:104BC0000109A9EB0700019042E0012F00DA01275B
:104BD0000021112F01DD112000E03846CDE9000150
:104BE00004A90CA8FFF7B2FADDE90D010C9A0091B7
:104BF0004FF0000BB946109221070FD4009A4A4596
:104C000003DA914601E0A9F10109B9F1010F05DDCF
:104C1000109AA9F10101515C3029F4D0B84202DAAE
:104C200010F1040F03DA0121CDE9011010E0002892
:104C300003DC8344A9EB000102E0411C494500DD8F
:104C40008946A0EB0B00401C01904FF00040029001
:104C5000200705D40198484502DB4FF0FF30019052
:104C600000208DF84B0002980DF14B07B0F1004F7A
:104C700025D002200C902B200D90029800280CDAF1
:104C8000404202902D200D9007E00A210298FEF785
:104C90008EFB3031029007F8011D0C99481E0C90D4
:104CA0000029F2DC02980028EFD1791E0D980870D7
:104CB000307800F0200040F0450007F8020D11A800
:104CC000C01BC01D02901398007800B1012000EBBA
:104CD0000901019801EBE071029801440398401A20
:104CE000401E0390E00306D453462146179A0398CA
:104CF00000F085F805441398007818B152461799CA
:104D000090476D1CE00323D553462146179A03981C
:104D100000F075F805441BE0BBF1000F07DB0098BD
:104D2000584504DD1098179910F80B0001E0179909
:104D300030205246904701980BF1010B401E05F1BF
:104D40000105019004D12E205246179990476D1C01
:104D5000B9F10001A9F10109DEDC05E017F8010B4A
:104D60005246179990476D1C0299481E02900029DF
:104D7000F4DC53462146179A03989EE62D00000066
:104D80002B000000200000002DE9F0410446002522
:104D90001E461746880404D405E039462020B04753
:104DA0006D1C641EF9D52846BDE8F0812DE9F0415F
:104DB000044600251E461746880404D405E03946FB
:104DC0002020B0476D1C641EF9D52846BDE8F0814F
:104DD0002DE9F041044600251E469046C80301D542
:104DE000302700E02027880404D505E041463846F6
:104DF000B0476D1C641EF9D52846BDE8F0812DE949
:104E0000F041044600251E469046C80301D53027D0
:104E100000E02027880404D505E041463846B04725
:104E20006D1C641EF9D52846BDE8F0810A68531C44
:104E30000B601070704700002DE9F05F0646008897
:104E4000C0F30B00824605F0FFF804007078758807
:104E50004FEA101709D005F10408884508D02A1D2B
:104E6000BDE8F05F3448FFF75DB9514633A01DE05F
:104E700001F06AF907F00301002740F2031BE0612B
:104E8000012903D002292BD03BA00FE0A08C58B100
:104E90004119B1F5827F0DD353465A464648FFF774
:104EA00041F9A784BDE8F09F514644A0BDE8F05FFA
:104EB000FFF738B9216A2A460844311D0E30FEF743
:104EC0000CFDA08C284481B2A184E08C0830814282
:104ED0002ED3206A0E3005F021F9E784A78427E05D
:104EE000A08C20B151464448FFF71CF9A784B7882D
:104EF000381D8146854205D31FFA88F1304605F0FA
:104F00000DF915E0FF2D07D953465A46291DBDE876
:104F1000F05F3A48FFF706B9206A2A1D31460E3085
:104F2000FEF7DBFCA4F82480E784216AA1F8109046
:104F3000BDE8F05F05F01EBC083602026863692E0A
:104F4000633A2061636C5F68616E646C65722063B4
:104F5000616C6C65642077697468206E6F6E2D7269
:104F60006567697374657265642068616E646C65F9
:104F700020257521000000006863692E633A2061D6
:104F8000636C5F68616E646C65722063616C6C65F4
:104F900064207769746820696E76616C696420703A
:104FA00061636B657420626F756E646172792066EF
:104FB0006C61677320257500C436020241434C20A2
:104FC000436F6E7420467261676D656E7420627502
:104FD00074206E6F20666972737420667261676DEB
:104FE000656E7420666F722068616E646C65203037
:104FF0007825303278000000B435020218370202FA
:1050000010B505494FF6FF7302E084788C54C01C3C
:1050100002889A42F9D110BD00001240704700008A
:105020001CB506498C68002C07D000210091019125
:10503000B0F804010B460322A0471CBDAC3E002083
:1050400070B50D4600281BD1002D19D10D4C4FF421
:105050009276206818B9304600F08AFF206004007C
:105060000ED031462046FEF783F9A4F8045104F52A
:105070008071284602F030FF4FF0FF30A4F806019F
:1050800070BD0000C03E0020F8B51646028A069F9B
:10509000521A94B2C288D2050AD50B4A55683DB15E
:1050A000009300890A46014633463846A847F8BDB2
:1050B0009C4200D91C464069224601443046FEF716
:1050C0000CFC2046F8BD0000AC3E0020042105F099
:1050D0008DBF042106F0D8BF0249086004210248B0
:1050E00006F046BFB83E00207D56000202494860E7
:1050F0000421024806F03CBFB83E00207D56000265
:10510000042105F073BF042106F0BEBF00B58BB0CB
:10511000D0F82001009023E0684600F04CFABDF87A
:10512000081000291ED0BDF806200FA0FEF7F6FFDC
:10513000BDF806008005039808D506A918F020FFE1
:1051400006A81CF0C3F9014611A001E0018811A0D6
:10515000FEF7E4FFBDF8101010A0FEF7DFFF009887
:105160000028D9D10BB000BD48616E646C653A204F
:105170003078253034782C20666C6167733A2030A3
:1051800078253034782C20757569643A2000000049
:105190002573000025303478000000002C20766153
:1051A0006C75655F6C656E3A2025752C2076616C98
:1051B00075653A2000000000064A30B45468002C9F
:1051C00006D00B46A4460246002130BC04206047AE
:1051D00030BC7047C03E00207CB51446042819D16D
:1051E00020783E283FD016DC052855D0082801D06D
:1051F00030280FD1B2F80350284600F0E9F8040037
:1052000008D0284619F035FE04F8FD0F284619F09D
:10521000D7FA60707CBDD7285ED0D8284DD0DA2868
:10522000F8D1608800F0D4F80500F3D0B5F8040197
:1052300004F00AFF0600EDD02079317A8842E9D1E6
:105240006946601D18F0AEFE062231466846FEF73C
:10525000A1F80028DED1E07A85F8FF00B5F8040156
:10526000FFF751FF7CBDA078012803D00A2801D0A8
:105270002928F7D1D41C9188D078FFF7E1FEB4F843
:10528000010000F0A5F80500ECD0B4F801001AF018
:1052900075FAA5F806017CBDB2F80350284600F067
:1052A00097F80400F7D000F071FC204600F066FE8D
:1052B0000F49002041F825007CBD608800F088F887
:1052C0000500F9D0B4F80B0001B2A5F8061109A049
:1052D000FEF725FF284608E0508800F079F80028FE
:1052E000EAD04FF0FF31A0F8061100F0A9FA7CBD1A
:1052F000C03E0020534D5F4556454E545F494445DE
:105300004E544954595F5245534F4C56494E475F8E
:105310005355434345454445442069642025750061
:105320003EB50C460546172903D306F09BFDA04267
:1053300002D206F097FD044602208DF80800ADF871
:105340000940002000900190032302AA042128466E
:1053500007F08CF83EBD3EB50C468DF808000020E5
:105360008DF8092000900190022302AA0421204612
:1053700007F07CF83EBD7FB50DF1200C14469CE88B
:1053800064008DF80800ADF80930ADF80B20ADF8D9
:105390000D10CDE90056072302AA0421204607F08C
:1053A00065F87FBD70B515000C4603D0D0F820011C
:1053B000206008E0002070BD204600F0FCF8208945
:1053C000A84203D020680028F6D170BD012070BD2E
:1053D00008B100207047014800687047C03E0020B7
:1053E0002DE9FF411D460B7816460024B0F8002138
:1053F0004F1D9C460E2B71D00BDCA3F102030B2B2F
:1054000015D2DFE803F01C142F1438144A145B146F
:105410006100182B71D006DC102B68D0122B7AD0CB
:10542000162B04D17DE0522B69D0D22B67D0614678
:1054300045A0FEF773FE04B02046BDE8F0810646A5
:10544000B1F8014006F00EFD844202D2A6F80041F8
:1054500001E0A6F8000103242C70B6F80001A5F8BD
:105460000100E8E7B1F803300093B1F801302946B4
:1054700003F0FCFA0FE0F61FB4B2B1F80570B1F812
:105480000360CB1DCDE90243CDE90067B1F80130DF
:10549000294603F057FA0446CDE70C462946072E65
:1054A00001D8022300E01023B4F80350CDE90053E3
:1054B0000297B4F8013003F0ADFCECE7B1F801302D
:1054C000294603F0C3FDE6E7B1F803300093B1F8D5
:1054D0000130294603F0A0FBDDE7FFE7491C761EFB
:1054E0000091C6F34F03294603F03EFDD3E70C4677
:1054F0002946072E04D8022303E018E00BE01CE045
:105500001023B4F80350CDE900530297B4F80130EA
:1055100003F0F2FBBFE700922B46324603F022FE77
:10552000B9E700922B46324603F018FBB3E700922E
:105530002B46324603F0D4F9ADE700922B463246B3
:1055400003F0E0FD77E70000556E68616E646C65FE
:10555000642041545420436F6D6D616E643A202580
:105560003032582C20444154413A20001CB50B4B9A
:105570005C68002C10D0B6238DF8003005238DF820
:1055800001308DF80200ADF80310ADF805200723B7
:1055900000216A460420A0471CBD0000C03E002038
:1055A00010B580B2FFF714FF002803D0BDE810400B
:1055B00000F0ECBA10BD10B501680A8882806AB1AB
:1055C0004B88C3808C8804818C1DC4609B050CD5DE
:1055D000A2F11603038201F116030BE00021C18042
:1055E0000181C1600182416106E0A2F108030382EA
:1055F00001F1080311444361016010BD70B5044618
:1056000000890D4600281BD0022A08D0E0888005BA
:105610000BD51022E068FDF7BDFE80B111E00988CE
:105620002046BDE8704000F00EB8084605F0CAFB01
:10563000002805D0E168A8890988884201D10120A5
:1056400070BD002070BD70B5044600890D4600286D
:1056500010D0E0888005E06808D505F0B3FB00288D
:1056600008D0E0688089A84203D004E0008888421E
:1056700001D1012070BD002070BD00002DE9F04176
:10568000194C06461F4615468846042809D0082EA0
:1056900028D12878C00720D0D4F800C01FE03046B9
:1056A000E047287878281DD1D4F804C0BCF1000F59
:1056B00008D03B462A4641463046E04704F0C0FB4E
:1056C00000280FD02468002C0CD03B462A464146C7
:1056D0003046A446BDE8F0416047D4F804C0BCF1B0
:1056E000000FDCD1BDE8F081B83E00202DE9F0418B
:1056F0000F461546044601461E46127828A0FEF7BE
:105700000EFD042C0CD0082C48D13846FFF760FE63
:10571000040043D029781E2909D0522919D01FE04E
:10572000287878283AD1BDE8F04100F027B9B4F8DC
:105730000801A8B104F5867000F008FDB4F808214E
:105740000020A4F80801B4F80411BDE8F041FFF707
:105750000DBF32462946BDE8F0410023FFF740BEA9
:10576000FB2E06D93246BDE8F041FB231948FEF76F
:10577000D6BC227822B1BDE8F0411748FEF7CFBC75
:1057800001202070A4F8026132462946A01CFEF7D1
:10579000A4F82046BDE8F04100F052B8BDE8F08121
:1057A0006174745F7061636B65745F68616E646C73
:1057B00065723A2074797065203078253032782C03
:1057C000207061636B65745B305D2030782530320A
:1057D00078000000A03402025434020210B5B0F880
:1057E0000001029CC01E80B21970A3F801208442FF
:1057F00000D8204610BD1FB514468DF80800069A43
:10580000ADF80930ADF80B20ADF80D100020009078
:105810000190072302AA0421204606F027FE1FBD9F
:105820003EB50C468DF80800ADF809200020009028
:105830000190032302AA0421204606F017FE3EBD74
:105840002DE9FF410446017824A0FEF768FC20788A
:1058500001282DD1A078D22808D003202070B4F8D8
:10586000040104B0BDE8F041FFF74DBC19F098F910
:105870000027E0B1B4F802010F2818D3B4F80401EE
:1058800019F0A2FD002813D1B4F9060106F098FF23
:1058900005000CD0B4F80211A4F10A000E58696C8E
:1058A000324611A0FEF73BFC686CB04202D927706B
:1058B000BDE8FF8102202070B4F803201749601D65
:1058C000CDE90006CDE90214B4F80201A1780F3841
:1058D00083B205F1340019F06DF9E9E76174745F82
:1058E00072756E3A20256400415454205369676EE6
:1058F00065642057726974652C20444220636F757B
:105900006E7465722025752C207061636B65742040
:10591000636F756E7465722025750000F95B000277
:10592000FFF7EEBB0EB50B21CDE900238DF8081073
:10593000012302AA042106F099FD0EBD10B5084806
:10594000064C446004F050FA05480830446018F0F2
:10595000AFFCBDE810400348FFF7C8BBD9510002B7
:10596000C83E0020ED56000200B5FFF731FD10B132
:10597000B0F8000100BD172000BD000038B5134885
:105980000468002C20D0207803280CD1204600F099
:105990008FF840B16078002816D0B4F80401BDE853
:1059A0003840FFF7B0BB607800280DD00020607051
:1059B00007A00068009005484468002C04D002232A
:1059C00000216A460420A04738BD0000C03E0020E8
:1059D000B70000002DE9FE431F4616460D468046DF
:1059E000FFF7F6FC040005D0B4F8080120B19020C0
:1059F000BDE8FE835920FBE74046FFF781FB88B1F5
:105A000002AB2A461D2120460097FFF7E7FECDE9AD
:105A10000060032302AA0421404606F027FD060089
:105A200002D014E05720E3E7A4F8085104F586708B
:105A300042460849044600F0BDFB47F2305240F2AE
:105A40008241204600F0A0FB204600F075FB304666
:105A5000CEE70000A155000210B50C4600F0C0F8DA
:105A60002046BDE8104000F0C1B82DE9FE431E46B7
:105A700015460F468046FFF7ABFC040014D04046A5
:105A8000FFF73EFB90B102AB3A461B212046009641
:105A9000FFF7A4FECDE90050032302AA04214046EB
:105AA00006F0E4FCBDE8FE835920FBE75720F9E748
:105AB0002DE9FC412F4E002707700446B0F8022163
:105AC0003346811CFFF78CFC0546A0F57F40FF386C
:105AD00023D0042D0FD3307801280CD13079082839
:105AE00009D194F8FE0030B1B4F8040118F08FFE2B
:105AF00078B1012811D085B100970197B4F804015D
:105B00002B463246042106F0B1FC3078032807D03A
:105B10002DE0B4F804011AF029F90020BDE8FC8159
:105B2000154AB4F80411B4F80001556875B1B522EE
:105B30008DF8002004228DF80120ADF80210ADF898
:105B40000400062300216A460420A847B4F8040193
:105B500000F096F809480078C00708D0B4F80001B2
:105B60000022001D81B2B4F8040101F02DFC0120D7
:105B7000D4E7000064420020C03E0020D83E002050
:105B80000149486070470000C03E002010B5B0F8E1
:105B9000082104463AB1B4F804119120FFF7E6FC5D
:105BA0000020A4F8080104F58670BDE8104000F05C
:105BB000CDBA10B50246FFF70BFC002806D0012134
:105BC0004170BDE810401046FFF79DBA10BD10B5FA
:105BD0000C46FFF7FDFB002801D0C0F8204110BDA6
:105BE0000149486070470000AC3E002001498860D0
:105BF00070470000AC3E00207CB5044600780A46A1
:105C000002280ED16946104618F0C9F9B4F80211FD
:105C1000A01F014408226846FDF7BCFB10B100201C
:105C200020707CBDB4F80211A4F10A000E58B4F93A
:105C3000060106F0C5FD050001D0012000E00020AE
:105C4000FB2207A1FDF744FE45B1761C6E640320DC
:105C50002070B4F80401FFF756FA7CBD72B6FEE777
:105C60006174745F7365727665722E630000000064
:105C70000A6882654968C1653521017002F0A6BADB
:105C800070B5054602F016FE04000BD02846FFF75B
:105C90009FFB002806D0E28AB0F800118A4202D9A0
:105CA000A0F8002170BDE18270BD0000F8B5044687
:105CB000C0880E46C0050BD506484568002D07D0A4
:105CC000002000900346024621893046A8472082E2
:105CD000F8BD0000AC3E00207CB50E46C9880446E5
:105CE0000D0B00D06D1C94F8FD2094F8FE00CDE95A
:105CF000000294F8FF302A461048FEF70FFAF088A9
:105D0000410502D594F8FE1079B1000502D594F84A
:105D1000FF0060B1002D02DD94F8FD0048B194F859
:105D2000FD00A84207DA0C207CBD05207CBD0820C0
:105D30007CBD0F207CBD00207CBD0000E43302024E
:105D40003EB50C468DF808000699ADF80920CDE95E
:105D50000013032302AA0421204606F087FB3EBD60
:105D60002DE9F05F984614460D4682460F461646CA
:105D7000DDF828B014E0281900EBD07040108146FF
:105D8000594642469047824503D11FFA89F0BDE843
:105D9000F09F504502D909F1010501E0A9F1010484
:105DA000A542E8DDBC4200DA3C46B54200DD35469E
:105DB0005946204642469047504501D3A0B2E6E7F7
:105DC0005946284642469047A8B2E0E710B50C462F
:105DD000022806D0084604F0F5FF002800D0A0896C
:105DE00010BD088810BD0622FDF7D4BA0A6802600B
:105DF000898881807047000010B50C490022034655
:105E00003A24985C000900F078FA0870985C00F079
:105E10000F0000F072FA48708C70C91C521C062AE0
:105E2000EFDB002001F8010C004810BD9941002073
:105E30000844008840BA70474218405C5378528842
:105E400052BA63F31F4242EA00607047130A435498
:105E5000491C89B242547047130E4354491C89B2FD
:105E6000130C4354491C89B2130A4354491C89B288
:105E70004254704710B5012100F0B4FBBDE810405A
:105E8000FDF730BD0149086070470000D83E002092
:105E900010B50446082020800120608005F0E2FF54
:105EA000A08002F0FDFCE08010BD0268134602E015
:105EB0008A4204D01268002AFAD10B600160704750
:105EC00002E08A4205D010460268002AF9D10A6031
:105ED00001607047006808B10020704701207047DA
:105EE00004E0884201D10120704700680028F8D101
:105EF00070470268816832B140680068884200D10A
:105F0000086808B9704709B1012070470020704740
:105F10000022C0E90021096881607047016851B121
:105F200041680A6881688A4203D1416009688160DA
:105F300003E0826001E001210160806870478168B0
:105F400009688160426811600021016070474FF06C
:105F5000FF3351B107E002688A4203D1096801604A
:105F60000020704710460028F5D118467047000001
:105F700001490968C96A08477C3E0020014909684F
:105F8000096B08477C3E0020FFF7F8BF7420FFF73D
:105F9000EFBF10B50446006A06F0CBFC2046BDE812
:105FA0001040FFF7EBBF70B58020FFF7E1FF040062
:105FB0000CD040F2111006F04BFD050008D08021F6
:105FC0002046FDF7D5F92046256270BD002070BD42
:105FD0002046FFF7D3FFF9E77047FFF7CFBF502008
:105FE000FFF7C6BFFFF7CABF1420FFF7C1BF2DE9F7
:105FF000F04106460020984617460C46054630609C
:1060000005E02146304600F007F844446D1CBD42CF
:10601000F7DBBDE8F081000030B40268134607E00A
:106020008B4204D1024630BC04A0FEF779B81B684D
:10603000002BF5D10A60016030BC70476274737444
:1060400061636B5F6D656D6F72795F706F6F6C5FB1
:10605000667265653A20626C6F636B2025702066FE
:106060007265656420747769636520666F7220705D
:106070006F6F6C2025700000016819B10A6802601A
:106080000846704700207047FFF778BF0C20FFF7E5
:106090006FBF000000B589B00DF1080C01900648F3
:1060A000006805928CE80B00044909688A69694612
:1060B000904709B000BD0000903E00207C3E0020CB
:1060C00013460A4601460A20FFF7E4BF13460A4674
:1060D00001460C20FFF7DEBF38B5154D286890F853
:1060E000900008B1552038BD4FF0FF30ADF80200E8
:1060F000ADF800000AE0684603F0F4FF0446C088EB
:10610000162104F01DF8204604F05CFC684603F0FC
:10611000C9FF0028EFD1012004F010FB054804F06E
:10612000C7F80028DFD12A68012182F8901038BD15
:1061300048160202301702020249006909684968DC
:10614000084700007C3E00200020704710B5044640
:10615000006928B103490968C9688847002020619F
:10616000002010BD7C3E002070B5064D044600693D
:10617000296889688847296820694968BDE87040AE
:10618000084700007C3E002070B516460D460446C8
:10619000FFF7DCFF04486560044A00682146036895
:1061A00030469847206170BD7C3E0020453E00028D
:1061B000C1607047C0E902127047000002490069DF
:1061C00009688968084700007C3E00202DE9F041FD
:1061D000074615480E4698460468154634F87E1F53
:1061E000A1F57F40FF381BD06288388800F03AF96B
:1061F000388062882188308800F034F93080E28865
:10620000A188288800F02EF9288062892189B8F8B1
:10621000000000F027F9A8F800000020BDE8F08198
:106220004FF0FF30FAE700004816020270B505464D
:1062300000680C4600B10120C32209A1FDF748FB0C
:10624000206800B10120C42205A1FDF741FB696867
:10625000206808606068686000202060606070BD31
:106260006C6973745F62617369632E630000000080
:1062700070B5034600200246012513F802400021B4
:1062800005FA01F6344201D0401C80B2491CC9B263
:106290000829F5D3521CD2B2052AEED370BD70B5D1
:1062A0000446008917F09AFE2521B0FBF1F201FBAC
:1062B0001201CA0801F00705A25C0123AB401A4293
:1062C00001D0084670BDE18841432046BDE87040DA
:1062D000C1F3074102F0ABBA30B504461068206044
:1062E00010790D4600F01F0020712046FFF7C0FF17
:1062F000E08085EA1540208130BD0A2801DA30307F
:1063000003E00A38062802DA4130C0B270473F2065
:10631000704770B50446C08E88B0002822D0258F03
:1063200094F83430A2268DF800601A268DF80160AA
:10633000A6890A46ADF80400ADF8082004F11C0156
:10634000ADF80260ADF80650ADF80A30102203A88F
:10635000FDF7C3FAA1891C236A46A06800F082F900
:106360000020E08608B070BD06481144006800F2C5
:10637000FF30814203D901201860032070470020BC
:1063800070470000EC3E002070B500F059F8264D33
:1063900024486861D5F80001800742D5FDF7B6FDB5
:1063A000224CA068224920F4F0400843A0602069F4
:1063B00020F080002061A06920F00040A061E0682A
:1063C00040F00400C4F80C00D5F800018007FBD4AD
:1063D000606900F0C04540F2C970804740F64D004A
:1063E0008047810504D440F4007040F601318847AD
:1063F00040F25160804740F60D0080470D4805434C
:106400006561206920F078402061BFF34F8F0A4812
:1064100001680A4A01F4E06111430160BFF34F8F44
:10642000FEE770BD001F1F0000001040002010405C
:1064300000280080C7E8948A0CED00E00400FA050B
:106440000648016841F4700101600548D0F82C113C
:1064500041F08001C0F82C117047000088ED00E089
:106460000000104019B1884201D208467047002A46
:10647000FCD09042FAD910467047000038B51C4C49
:10648000A068006E28B960682021426940209047CA
:10649000A0616068006A80476061012000906068C8
:1064A0004FF4806300220569124913A0A847E061F8
:1064B000A068006E002817D111480025D0F89C0173
:1064C00098B16068C16A082088470E4AD2E9001274
:1064D000C0E900120095616802464FF496630D69A9
:1064E00009490AA0A847206238BD2846F2E7000003
:1064F000783E0020890100206374726C0000000067
:10650000000012409801124079030020686F7374F4
:106510000000000000204FF4FA5100BF401C8842E8
:10652000FBDB704770B51D4606000C460ED002F02E
:10653000B7F9401CB04209DD20782968884205D1AE
:106540000622211D6868FCF725FF08B1002070BDF8
:10655000C5E90264032070BD0248417A491C4172BA
:1065600070470000543F002010B5044603F08EF839
:10657000002010F085FB10F04BFF10F0C5FA08F07A
:1065800031FB0CF06BFC12F063FA16F01BF9002CD7
:1065900003D0BDE8104011F0F2BB10BD70B5044649
:1065A000B0F1A53F19D0B4F1C33F16D001231A02B0
:1065B00005211D20FDF79BF90546B4F1F23F09D0F6
:1065C000922206A10020FDF783F92846BDE870401D
:1065D000FDF792B907202870F7E770BD6474626C0C
:1065E000652E6300F8B505461B480E460021018064
:1065F00010F058FB1AF070FB16F0F6FF684610F02A
:1066000069FB0446009840F68C114FF4A567884258
:1066100001D3012000E00020862210A1FDF758F9E7
:106620003A462146002017F015F8009804F5A561B8
:10663000A0F5A56082B2012017F00CF81AF0C8FA94
:106640003046FFF791FF002D04D02846BDE8F84002
:10665000FFF7A4BFF8BD0000944000206474697087
:106660002E63000030B4040003D0A44630BC0420E4
:10667000604730BC704700002DE9F04186B0984675
:1066800014460D460646002702F014F9002838D0BB
:10669000011D03A8FFF73CFC0CE003A8FFF73EFC3C
:1066A0000189A94206D14768434622463146042063
:1066B000B847012703A8FFF71CFC0028EDD1002FE5
:1066C0001FD14146304602F0F5F8002819D00E4897
:1066D0000768002F15D0AC208DF8000009208DF838
:1066E000010014F8030B8DF80200C91EADF8035029
:1066F000ADF805100B23CDF807406A46314604205B
:10670000B84706B0BDE8F081DC3E00201CB5A022F1
:106710008DF8002003228DF801208289ADF8022037
:106720008DF804108189806805236A46FFF79AFF77
:106730001CBD30B587B00446A3250A988DF80050DB
:1067400018258DF80150A589ADF80410ADF8062084
:106750000146ADF80250ADF8083010220DF10A00E4
:10676000FDF7BBF8A1891A236A46A068FFF77AFFF4
:1067700007B030BD10B586B00446A1208DF80000EA
:1067800016208DF80100A089ADF80410ADF80200C4
:10679000ADF806201022194602A8FDF79EF8A1893F
:1067A00018236A46A068FFF75DFF06B010BD000021
:1067B0002DE9F05F00249246894605462746264685
:1067C00026E000BF05EB8400B0F9021035F9240083
:1067D00017F032FC834605EB8800B0F9021035F95A
:1067E000280017F029FCABEB000043F6FF7188424C
:1067F00003DBA0F5FE40FF3806E043F6FF71C84218
:1068000002DC47F6FF710844074404EB4904761C98
:1068100004EB0908D045D5DB97FBF6F0BDE8F09F07
:106820002DE9F04342780446901C89B00E4681421F
:1068300006D009B0E548BDE8F043921CFDF772BCF4
:106840002178E3A0FDF76EFC2078DFF894834FF009
:106850000009122875D00CDC0E2811D004DC0528A4
:1068600070D0082853D17BE00F2835D010284ED1A6
:1068700099E0132852D03E2871D0572847D186E19D
:10688000D8F80000A278454690F83A10D5A0FDF758
:1068900049FC6179DCA0FDF745FC2968A07881F806
:1068A0003A00DE49B4F803000988884207D1002085
:1068B00003F044FF296881F8909004F009F82968F2
:1068C000B4F80300B1F86A10884218D12868C26A87
:1068D000AAB1016B601D11E0D8F80020E1784046B4
:1068E00082F83A10D8F80020A188B2F86A209142C4
:1068F00005D10168CA6A12B1096B601C9047D8F8CB
:106900000020A2F86A90D8F80010C1F82C90D8F8AE
:10691000000090F8500001287ED044E103250027B4
:1069200019E0625BAD1C615B1046AD1C03F08CFB93
:1069300048B190F828208A420AD3511A80F82810CA
:1069400008E035E026E01146B5A0FDF7EBFB01E0DD
:1069500080F828907F1CA078B842E2DCD7E733E0CB
:10696000B4F80350284603F06FFB0028CFD0A1787D
:1069700049B961790029816902D041F4004101E0FF
:1069800021F40041816100F01DFC0146284603F01E
:106990003DFCBCE7B4F8030003F056FB0028B6D07A
:1069A00007214174B3E703F069FE03F07BFEAEE715
:1069B000A0780028ABD1B4F8030003F045FB002811
:1069C000A5D0617A0174A2E7A0780A2833D02EDC22
:1069D000012830D004287DD0062898D19E48007820
:1069E000800694D434F8037F384603F02DFB05006D
:1069F0006088ADF81400A088ADF81000E088ADF80C
:106A000018002089ADF81C00A4F10304A6D007AB40
:106A100006AA04A905A800E0C1E0FFF7D7FB98B3D8
:106A20008E483B22394600BF03F042FC6FE7122834
:106A300072D0292892D1E07800288FD1A78827BB6F
:106A4000D8F800004546406918B9FFF7ACFA296844
:106A500048612868A8464569BDB1EF800220C5F8A5
:106A60001890A874FFF770FBE861E0792872294656
:106A700004F1080017F096FA05206874A0792874CC
:106A8000A0780A2805D010E047E0A08800F094F92B
:106A90003DE7D4F80E00C5F87200608AA5F87600CC
:106AA0006069A867208BA5F87C00E0896887287C4E
:106AB00060B9D8F8001091F83810E973D8F80000E0
:106AC00005F1090190F8380000F028FA2846FFF790
:106AD00093F900E011E00246E98861A0FDF722FB8E
:106AE00003F06AFBD8F8000090F84600C0069DD578
:106AF000E98840F6B832624896E7E07800284BD142
:106B0000A08803F0A1FA002846D0A17980F871107E
:106B1000012180F87010FAE610E0BDF81800EB8F44
:106B2000AA8FBDF81C108DE80F00BDF81030BDF81D
:106B300014203946534803F0BBFBE8E620790828C7
:106B4000A6D2E17819B150A0FDF7ECFADFE6B4F86F
:106B50000520104603F078FA0546217953A0FDF789
:106B6000E1FAD8F8000021797530095CE97349B180
:106B7000217968461AF084F805F10901684617F092
:106B800011FAC4E605F1090000F0DEF9BFE66088FD
:106B900003F05AFA0028BED109B0BDE8F083B1B2C3
:106BA000204603F02DFCB1B2204603F0DDFA207838
:106BB000052806D1B4F8030003F046FA08B103F043
:106BC00001FF09B0BDE8F04303F0D4BD6436020212
:106BD0004843493A4556454E543A253032780000EC
:106BE00048160202434D445F434F4D504C455445B7
:106BF00020636D6473206F6C64202575202D206EDA
:106C00006577202575000000636D645F636F6D70AC
:106C100020737461747573202575000030170202AB
:106C20006863695F6E756D6265725F636F6D706CCE
:106C3000657465645F7061636B6574206C697374FF
:106C40007320756E7573656420636F6E2068616E66
:106C5000646C652025750000D83E0020C81702022C
:106C60004E657720636F6E6E656374696F6E3A2050
:106C700068616E646C652025752C2025730000000A
:106C800038170202D01702026164762073657420FF
:106C90007465726D696E61742064756520746F200F
:106CA000636175736520307825780A006164762009
:106CB00068616E646C6572203078257820636F6E31
:106CC0006E656374656420746F20636F6E20686105
:106CD0006E646C6520307825780A000010B5044693
:106CE00004F058F8204610BD13460A4601460148F4
:106CF00003F0DEBA781802020246014803F0D8BA5F
:106D00007017020230B50C46054689B01946104688
:106D100000F074FA00280CD16946284617F030F9C3
:106D200004A9204617F02CF904AA6946024803F08A
:106D3000BFFA09B030BD0000A0170202014803F0FD
:106D4000B7BA000068170202014803F0B1BA0000A8
:106D500028180202014803F0ABBA000088180202AA
:106D60000A460146014803F0A3BA0000C817020210
:106D70007FB50DF1200C9CE870008DE8780013467B
:106D80000A460146024803F093FA04B070BD0000C1
:106D9000D0170202014803F08BBA00005817020214
:106DA00008B5009313460A460146024803F080FAEC
:106DB00008BD0000AC160202132100F001B800006B
:106DC00010B5034603F040F940B1062242740A466A
:106DD0001946054803F06CFA002010BD0021184642
:106DE00003F0AEF9F8E700002017020238B54FF0C3
:106DF000FF30ADF80200ADF8000006250DE0684652
:106E000003F070F90446407C062806D0E18813227E
:106E1000054803F04DFA00B96574684603F042F97D
:106E20000028ECD138BD0000201702022DE9FF4FE9
:106E300085B0DFF89C80DDE912698A460A200024CB
:106E400000EB06119B462746B8F8000003AA02F0A3
:106E5000D9FF050001D001210FE0562009B0BDE89F
:106E6000F08F00BF04EBC40219F81220521E01FA81
:106E700002F03843641CC7B2E4B2B442F2D30798BC
:106E8000CDE9000B02975346D8F804102846059A1E
:106E900003F0D1F8C7B200240DE000BF04EBC40139
:106EA00009EB4101E8191022891CFCF716FD103787
:106EB000641CFFB2E4B2B442F0D30649404609680C
:106EC00081F838A02946039A03F036FD0020C5E773
:106ED000581802024816020210B500F08FF9002877
:106EE00004D1BDE81040024803F0E2B910BD000033
:106EF000A81702020248006890F86C007047000072
:106F0000481602020449096851F87E2F02604A6857
:106F10004260896881607047481602021CB50C46C1
:106F200020B1FF21684619F0ABFE02E0684619F077
:106F3000BDFE2146684617F035F81CBD01460148E4
:106F400003F0B6B99017020201460020FFF7E6BF32
:106F500010B50446014604A0FDF7E4F8022C01D95F
:106F6000012010BD002010BD6761705F6D69746DF8
:106F70005F70726F74656374696F6E5F726571754F
:106F8000697265645F666F725F7365637572697459
:106F9000795F6C6576656C20257500007FB50DF115
:106FA000200C9CE870008DE8780013460A460146E4
:106FB000024803F07DF904B070BD000060180202C1
:106FC000014803F075B900006818020213460A462A
:106FD0000146014803F06CB99C16020213460A46AA
:106FE0000146014803F064B9941602021CB5049CE2
:106FF000CDE9003413460A460146024803F058F929
:107000001CBD0000A41602020146014803F050B95D
:10701000701802020448817A012903D10221817289
:1070200018F04EBF70470000543F0020074810B5CD
:10703000426C40F282210648FFF7A6F80448FFF7A9
:107040007BF8BDE81040FFF7E5BF0000543F00208B
:10705000B043002010B5002207490848FFF7AAF8FE
:10706000074840F28221426C0448FFF78DF8BDE8E2
:1070700010400248FFF760B82D700002B0430020B6
:10708000543F0020014803F013B9000050170202DA
:10709000014803F00DB9000084160202014803F014
:1070A00007B90000901802020146014803F000B938
:1070B000E01702020146014803F0FAB898170202ED
:1070C0000146014803F0F4B82817020201460148BE
:1070D00003F0EEB840170202014803F0E9B80000DF
:1070E000601702020246014803F0E2B87817020274
:1070F0002DE9F0410E46074602F0A6FF050010D02C
:10710000384600F055F804460246314608A0FDF71F
:1071100009F8B44207D321463846BDE8F04103F0F0
:1071200075B80121F8E7AE74BDE8F04103F022BB69
:107130006761705F726571756573745F73656375A0
:10714000726974795F6C6576656C2025752C206397
:10715000757272656E74206C6576656C202575009D
:107160000146014803F0A4B82018020213460A465B
:107170000146014803F09CB88018020213460A46F3
:107180000146014803F094B8BC160202F0B585B080
:107190000DF1280C9CE8F0008DE8F80013460A4633
:1071A0000146024803F084F805B0F0BDCC16020297
:1071B00010B502F049FF18B1BDE8104000F002B868
:1071C000012010BD10B1008B000401D401207047D4
:1071D00002207047022070470A460146014803F02A
:1071E00067B80000F817020200B1012002490968DF
:1071F00081F86C007047000048160202034A1368C9
:107200005862106881620020704700004816020230
:107210000149096848637047481602021CB5049C7E
:10722000CDE9003413460A460146024803F040F80F
:107230001CBD0000741602020A460146014803F014
:1072400037B800007C1602022DE9FE4F124E174699
:10725000884681461D46308802AA591DDDF830A0B7
:1072600002F0D0FD040014D0CDE9007543464A4633
:10727000716802F0E0FEC0B220442A465146FCF795
:107280002CFB21463046029A03F056FB0020BDE855
:10729000FE8F5620FBE70000641602022DE9FC4732
:1072A000104D16460F4680469946288801AA311D82
:1072B00002F0A8FD040013D000963B4642466968E0
:1072C00002F0B9FEC0B2204432464946FCF705FB45
:1072D00021462846019A03F02FFB0020BDE8FC87D9
:1072E0005620FBE76C16020204490268096841F85F
:1072F0007E2F42684A6080688860704748160202A4
:107300000A460146014802F0D3BF000054160202AB
:107310002DE9FF5F144DDDE90E6B904689468246EC
:107320001F46288803AA711D02F06CFD040018D0C6
:10733000CDF80080CDE901764B465246204669687B
:1073400002F079FEC0B2204432465946FCF7C5FA35
:1073500021462846039A03F0EFFA002004B0BDE866
:10736000F09F5620FAE700004C1602022DE9FF5F5D
:10737000144DDDE90E6B9046894682461F462888EB
:1073800003AAB11D02F03EFD040018D0CDF8008024
:10739000CDE901764B4652462046696802F04BFE25
:1073A000C0B2204432465946FCF797FA2146284697
:1073B000039A03F0C1FA002004B0BDE8F09F562004
:1073C000FAE700005C1602020AB944F29022134662
:1073D0000A460146014802F06BBF0000D8170202BE
:1073E00013460A460146014802F062BFE81702024E
:1073F00008B50B46009202460021024800F062F8F0
:1074000008BD0000081802022DE9FC47184F884605
:1074100091460446022101EB8801388801AA02F056
:10742000F1FC060007D043462246796802F003FECD
:10743000C5B2002413E05620BDE8FC8704EB4400ED
:1074400009EB40010A7900924B8819F81020701955
:1074500008A102F0F0FD2D1D641CEDB2E4B244451C
:10746000ECD331463846019A03F066FA0020E3E790
:1074700018180202313231002DE9F04F8DB00DF1B4
:10748000640C179C9CE8E04FDFF830C0DCF800C0CB
:1074900084448CF875400DF1100C8CE8E04F169E7A
:1074A000189DCDE9003613460A4601460448CDE949
:1074B000024502F0FDFE0DB0BDE8F08F4816020255
:1074C000001802022DE9FC471C460A9D1746884613
:1074D0008146F72B26D9F720CDE900050B4601227E
:1074E0003946484602F0E4FE002823D1F73CA4B216
:1074F000F73515E0F72C01D3F72600E02646A01B50
:10750000CDE900650404240C01D0002200E0022231
:1075100043463946484602F0CBFE00280AD135449E
:10752000002CE7D14346032239464846CDE90045C1
:1075300002F0BEFEBDE8FC8708B5009313460A467C
:107540000146024802F0B4FE08BD000050180202D5
:107550002DE9FC4716460F46DFF88C8002EB8601CA
:10756000824699460024B8F8000001AAC91C02F01E
:1075700049FC050002D0002001220EE05620BDE8A3
:10758000FC8700BF00EB400319F813305B1E02FAC2
:1075900003F12143401CCCB2C0B2B042F2D30094FC
:1075A0003B4652462846D8F8041002F044FDC7B2C4
:1075B00000240FE004EB440109EB410081880091B5
:1075C00043884278E81909A102F035FD7F1D641C4B
:1075D000FFB2E4B2B442EDD329464046019A03F02B
:1075E000ABF90020CBE7000048180202313232002C
:1075F00008B50B460092024600210248FFF762FFE1
:1076000008BD0000101802020A460146014802F0B7
:107610004FBE0000881702022DE9F843194F1546A6
:107620000C468046F82923D90146F8230122384622
:10763000009502F03DFE002821D1F83CA4B2F835B7
:1076400014E0F82C01D3F82600E02646A01B040421
:10765000240C009501D0002200E00222334641466E
:10766000384602F025FE002809D13544002CE8D127
:107670002346032241463846009502F019FEBDE834
:10768000F8830000381802020A460146014802F059
:107690000FBE00004018020208B5009313460A46C8
:1076A0000146024802F004FE08BD00003018020244
:1076B0000A460146014802F0FBBD00008C1602029A
:1076C0001CB5049CCDE9003413460A460146024825
:1076D00002F0EEFD1CBD0000F01702020146014859
:1076E00002F0E6BD481702020249096881F8390034
:1076F00070470000481602022DE9FF4F87B01C4674
:10770000DDE91A01DDE91865DDE91687DDE914A96F
:107710009346FFF773FD00280DD1CDE9004ACDE96E
:107720000259CDF81080CDE90576DDE907125B46F8
:10773000024802F0BDFD0BB0BDE8F08FB4160202A6
:10774000014802F0B5BD0000DC16020208B5009346
:1077500013460A460146024802F0AAFD08BD000091
:10776000C4160202F0B587B00DF1300E9EE8F0109D
:107770008DE8F81013460A460146024802F098FDCB
:1077800007B0F0BDD41602022DE9FF410446DDE941
:107790000A570C9E02F058FC002805D0007C30B13E
:1077A0002046009504F08FFC04B0BDE8F0810396FC
:1077B0008DE8A80013460A462146024802F078FDEB
:1077C000F2E700008017020208B59200921C0B46F7
:1077D000009201460722024802F06AFD08BD00003F
:1077E000E41602022DE9F04788B04FF00009DFF8F7
:1077F00070A41D4614460F46CDF8089004281DD0ED
:10780000082825D120781B2825D01D2833D03846BC
:1078100001F050F8029000281AD021786E1E4FF027
:1078200001080D297ED02CDC0C2938D2DFE801F0CC
:1078300037F9375237F837F737A937F621787829EB
:1078400006D1DAF800600EB13946B04700F0BEFC50
:1078500008B0BDE8F087B4F80160DD1E3146A7200E
:10786000D21C16F00DFD0246ED1CABB23146384677
:10787000FEF702FFECE702A9384616F0FFF902987E
:10788000C9E717297AD006DC0F2978D0112953D0FF
:10789000132904D138E1192972D01D295BD0F1A038
:1078A000FCF73FFC20788DF80C8002998DF80D00D4
:1078B00006228DF80E908DF810208DF80F90CDF8DF
:1078C0000090CDF804908889052303AA042104F0D0
:1078D000CDFDBBE7B4F8014004F0C4FA01468C4288
:1078E00000D221460298C18280F81880DAF8004060
:1078F00084B1AB218DF8001004218DF8011081892D
:10790000ADF80210C18AADF80410818906236A46D9
:107910000420A0473846FEF7B3F9DD480078800719
:1079200094D400E0F8E002980022C18A8089091D01
:1079300089B2FFF749FD89E70178022986D12A46F5
:10794000214616F0DFFA6078029B281A20440122B3
:1079500041881846A6E0B4F80160E21C3146A82030
:10796000ED1E16F08DFCED1C0246ABB231463846DA
:10797000FEF782FE029981F8518067E7FCE03AE168
:107980002CE101780C291AD010DC062901D0082935
:107990009FD12A46214616F067FA2946204600F074
:1079A00091FF0146029819F0CBFB4FE7142939D01B
:1079B00024298ED16188A0F84C1025210BE094F881
:1079C0000180B8F1070F08D261888185A1880186FE
:1079D000E18841860D21017038E7022717E000BFDA
:1079E000E019029E34F807904188318681887186BB
:1079F000C18803A819F096FD03A80090738E328EFB
:107A000049463046FEF795FE07EB080087B2AF42C5
:107A1000E6D361780298691A615A42E01AE04DE0B3
:107A200062E0F1E0677800210226A7F102090CE08C
:107A300034F80680A2191FFA89F34146921C029875
:107A400016F003FAF019414686B2AE42F0D3132283
:107A5000029827E001780E2915D0102925D0282971
:107A60008BD100F049FA029D621CA920298F16F0E3
:107A700007FC02460836B3B2A989A868FEF7F2FDF2
:107A800000210298E9E003A9601C16F079FA029837
:107A900003AA818D0092438E028EFEF74AFE029861
:107AA000818D0B2219F06CFBD0E600F025FA0298CC
:107AB000B3B2621C018F16F0C8F9E1E74FF0040879
:107AC0004FF6FF77012609E0A019A15B47880298CD
:107AD0003A4600F11C03FEF74DFE4644AE42F3DB8E
:107AE000394603220298DDE761780423022900D198
:107AF0001223E91A665AAD1EAAB2A11C16F070F93B
:107B0000314609220298CDE70178182903D02629A9
:107B100001D02C29C8D18EE06D1E0178ADB26D1D4B
:107B2000B6B2122916D02A29BED1018F428F07463C
:107B3000631CAA20009616F0B1FB020004D0ABB281
:107B4000B989B868FEF78EFD32462921029819F0EE
:107B5000DFFA7BE6018F428F0746631CA620009662
:107B600016F09CFB020004D0ABB2B989B868FEF7EE
:107B700079FD32461121E9E701781A2910D01C2934
:107B80001AD02E2912D032298ED100F0B5F92A460A
:107B90002146029803F02CF900288ED17E2170E74F
:107BA000B4F8031041871D22192110E0B4F8031026
:107BB00041872F222D210AE02A46214603F018F999
:107BC00040B10298B4F803101D2241871B2119F01F
:107BD000C6FA3BE602992120087037E601781E2993
:107BE00029D0202927D0222902D03029B1D122E062
:107BF00000F082F9D2E701781629AAD1B3B2621C4B
:107C0000002116F022F91CE021790A2910D102780E
:107C1000082A13D006DC022A0DD0042A0BD0062A2B
:107C200006D10BE00A2A06D00C2A04D0142A0AD066
:107C300000F0BBFA0AE600F05FF921E7C18DFEF71C
:107C400068FB0298F7E700F057F90298818D028EE1
:107C5000914201D10A2100E00021FEF757FDF5E530
:107C6000DC3E00204154542048616E646C65722CE7
:107C700020756E68616E646C656420726573706FE8
:107C80006E73652074797065203078253032780005
:107C9000D83E002038B50A4604466946104616F01C
:107CA00031F8002806D100981F218460017000F08F
:107CB0008DFA002038BD38B5144605460A46002026
:107CC00000906946104616F011F8002817D1608818
:107CD000A188884204D100210098FEF717FD0DE02D
:107CE000009800F0ADFC009885606188491C818592
:107CF000A188C1850921017000F068FA002038BD13
:107D0000F8B515460A4606461C4669461046069FC3
:107D100015F0F8FF002814D1009801211022866088
:107D20008585C48580F850100024448339461C3072
:107D3000FBF7D3FD00980721C486017000F046FAD6
:107D40000020F8BDF8B516460A4607461D466946A6
:107D50001046069C15F0D6FF002813D1009801218B
:107D600087608685C58580F85010448321461C3085
:107D700019F0D8FB00980021C1860721017000F09E
:107D800025FA0020F8BDF8B515460A4606461C46F9
:107D90006946104615F0B6FF00280CD10098002166
:107DA00086608585C48580F85010C18605210170E4
:107DB00000F00CFA0020F8BD38B50A4604466946C2
:107DC000104615F09FFF00280CD1009801214FF6B6
:107DD000FF7284608185C28501700021418300F0BB
:107DE000F5F9002038BD38B515460A4604466946FF
:107DF000104615F087FF002813D1009801211022AA
:107E0000846081854FF6FF71C18500214183294639
:107E10001C30FBF762FD00990320087000F0D6F9D2
:107E2000002038BD38B514460A4605466946104656
:107E300015F068FF002811D1009801218560818527
:107E40004FF6FF71C185032100F81A1B214620F867
:107E5000024B19F067FB00F0B9F9002038BDF8B506
:107E60000D46002406466946009415F03FFF0028A1
:107E700004D10098017E012901D09520F8BD047637
:107E800029463046FDF74CFA0020F8BD38B50A46C1
:107E900004466946104615F035FF002806D10098C3
:107EA0001D218460017000F091F9002038BDF8B503
:107EB00015460A4606461C466946104615F022FF3E
:107EC000002808D100980B2186608585C485017043
:107ED00000F07CF90020F8BD00B500F0EBFC10B11B
:107EE000027E012A03D017200880952000BDC08A99
:107EF0000880002000BD000010B50021017004467C
:107F0000818904A0FCF70DF904F16000BDE8104080
:107F1000FEF71CB94741545420636C69656E7420A8
:107F200074696D656F75742073746F702C2068614F
:107F30006E646C65203078253032780070B5042886
:107F40001AD11078052813D1B2F80350284600F052
:107F5000B1FC04000CD01F2100F027F92046FFF7E8
:107F6000CBFF0649002041F825002046FEF70CF81B
:107F7000BDE8704000F02AB970BD0000E03E00206E
:107F8000064910B504484860084601F02DFFBDE8D9
:107F900010400348FDF7A0B83D7F0002E43E0020FA
:107FA000E577000208B500210091694615F09EFEB4
:107FB00008B1002008BD012008BD10B50C460146DF
:107FC000104600F077FC002806D04C600B81BDE81D
:107FD0001040001DFDF769BF10BD2DE9F84315469F
:107FE0000A46DDE9087806461C466946104615F043
:107FF00089FE00280BD1009831218660058787878C
:108000004487C0F84080017000F0E0F80020BDE82F
:10801000F88338B514460A4605466946104615F0F9
:1080200071FE002807D10098272185600487017020
:1080300000F0CCF8002038BD0023AFF30080F8B585
:1080400015460A4606461C466946104615F05AFE75
:10805000002808D10098292186600587448701708F
:1080600000F0B4F80020F8BD0023AFF30080F8B5AD
:1080700015460A4606461C466946104615F042FE5D
:10808000002808D100981121866005874487017077
:1080900000F09CF80020F8BDF8B514460A460646E4
:1080A0001D466946104615F02DFE002809D100989E
:1080B00015218660A0F844408564017000F086F8C0
:1080C0000020F8BD38B514460A46054669461046F4
:1080D00015F018FE002809D100980021856004875A
:1080E00041870F21017000F071F8002038BDF8B50C
:1080F00015460A4606461C4669461046069F15F078
:1081000001FE002812D1009800211022866085858A
:10811000C48505864486418339461C30FBF7DDFB68
:1081200000991320087000F051F80020F8BDF8B550
:1081300015460A4607461C4669461046069E15F037
:10814000E1FD002810D10098314687608585C485FF
:108150000586448646831C3019F0E4F90099132003
:10816000087000F033F80020F8BD000001490860F5
:1081700070470000DC3E0020F8B515460A4606466A
:108180001C4669461046069F15F0BCFD00280BD121
:108190000098002186600587848741871B2107643A
:1081A000017000F013F80020F8BD70B504460078A7
:1081B0000D46002808D02046FFF79EFE294620469F
:1081C000BDE87040FEF7A2BA70BD00002DE9F04F87
:1081D000C84889B00468002C79D0A089FCF776FFE4
:1081E000B0B12278217EC4A0FBF79BFF207E01283E
:1081F0006DD194F8510000254FF01E0970B184F83C
:108200005150A0898DF8089000950123019594E0C4
:10821000A08909B0BDE8F04FFCF75BBF20781728B4
:1082200001D02B2818D1204615F0F0FAA18FC01EDE
:10823000884211DA204615F0E9FA0246A18FBCA067
:10824000FBF76FFF2046FFF757FE09B02046BDE859
:10825000F04F0D21FEF75ABA606D04F0B1FA0646F0
:108260002178BEA0FBF75DFF94F800C00423022034
:1082700008220E274FF420514FF0100A4FF00C0B3C
:10828000BCF1360F3FD2DFE80CF03E1B3E233E41EF
:108290003E443E4B3E5B3E643E673E6A3E6C3E91D2
:1082A0003EA43EA63EAA3EAC3EAF3EB13EB93EDB4A
:1082B0003EC13ECB3ED33EE83EF03EA83EF83EFDFA
:1082C0002070E08D0090A38DA289102052E01AE06A
:1082D00023700D46618B39B1ADF81C10E18D07AAF2
:1082E0000091CDE9012008E003A904F11C0015F07C
:1082F00047FEE18D03AA8DE80604A38DA2892946D5
:108300000620FDF738F809B0BDE8F08F0620207090
:1083100000E0227009B02046BDE8F04F15F023BF01
:108320002270A089A18DE28D8DF80830ADF809107A
:10833000ADF80B2000950523019502AA042132E037
:1083400084F800B0E08D0090A38DA28942F602016E
:108350000FE02770228E5CE084F800A058E0122025
:108360005FE014202070618B39B1E08D0090A38D07
:10837000A2890820FDF73FFAC5E7A689A18DE08D07
:108380008DF80820ADF8091004F11C03ADF80B00BE
:108390000DF10D01184615F0F3FD0095152302AA05
:1083A00004213046019504F061F8ACE716202070F6
:1083B000B4F844104FF6FF72A589A06C02EA41019F
:1083C000CDE9000101238DF8087002AA0421284696
:1083D000E9E718202DE01A2040E032203EE01C2082
:1083E0003CE084F8009042E0202000E02220207051
:1083F00009B02046BDE8F04F15F0B0BE2420207033
:1084000009B02046BDE8F04F15F0EDBE28202070E1
:10841000228FA18909B00A20BDE8F04FFDF700BA0C
:108420002A20207009B02046BDE8F04F15F0C6BEE6
:108430002C20207009B02046BDE8F04F15F0DEBEBC
:108440002620207004F14E000090B4F84C20A18941
:1084500002231220FDF774FC55E72E20207009B08E
:108460002046BDE8F04F15F08EBE3020207009B0D8
:108470002046BDE8F04F15F081BE16F091FB0028B4
:1084800093D000E010E034202070B06D216C01AB7F
:108490000091384A83E81500A38F228FD22106F17C
:1084A000480016F087FB2EE736202070B16DB4F837
:1084B0000C90228FB4F83C80D223276C8DF81030BA
:1084C000ADF81120059104F158000DF1140A06A928
:1084D00015F065FD8DE8800D032304AA04214846AC
:1084E00004F00CF825702046FFF706FDB06D401C27
:1084F000B06508E7E03E00202D2068616E646C6581
:108500005F7065726970686572616C5F6C697374C5
:108510002C206D74752073746174652025752C2072
:10852000636C69656E7420737461746520257500D1
:10853000676174745F636C69656E745F72756E3ABF
:108540002076616C7565206C656E202575203E2057
:108550004D5455202575202D20330A006761747411
:108560005F636C69656E745F7374617465202575F3
:1085700000000000715C00022DE9F84306468846C1
:10858000002000901C461546089F6946404615F09D
:10859000ADFB00280DD1404617F0F0F80099486572
:1085A00001460AA0FBF7BDFD0098416D002902DAE3
:1085B0009520BDE8F88386600587848733210764AA
:1085C0000170FFF703FE0020F3E700006C655F64B5
:1085D00065766963655F6B6579206973203A3078E9
:1085E00025780A0070B50A4E0546002456F8240086
:1085F000A84207D1A98907A0FBF793FD7F21284650
:10860000FFF7D3FD641C2404240CEFD070BD0000E0
:10861000E03E00204741545420636C69656E74202D
:1086200074696D656F75742068616E646C652C206B
:1086300068616E646C652030782530327800000007
:1086400070B5044681890DA0FBF76BFD04F1600055
:10865000E4660546FDF77AFD224613492846FDF7F4
:10866000A9FD47F2305240F281412846FDF78CFDCA
:108670002846BDE87040FDF75FBD000047415454F7
:1086800020636C69656E742074696D656F75742004
:1086900073746172742C2068616E646C652030782C
:1086A0002530327800000000E5850002F8B5154657
:1086B0000A4606461C4669461046069F15F022FBF0
:1086C00000280BD1009800218660058784874187A8
:1086D0002B2107640170FFF779FD0020F8BDF8B584
:1086E000144606460A46002000901D46694610467C
:1086F00015F0FCFA002805D1E80704D0A079C006DF
:1087000001D49820F8BDA80704D5A079800601D42B
:108710009920F8BD0098FFF793FF00988660618864
:108720008185A188C185A0F84E5023210170FFF7F3
:108730004DFD0020F8BD1CB5049CCDE9003400239C
:1087400000F001F81CBD2DE9F84315460A46DDE9A5
:10875000087806461C466946104615F0D3FA0028EC
:108760000BD100982D218660058787874487C0F844
:1087700040800170FFF72AFD0020BDE8F8831CB59A
:10878000049CCDE90034002300F001F81CBD2DE964
:10879000F84315460A46DDE9087806461C46694650
:1087A000104615F0AFFA00280BD100981921866009
:1087B000058787874487C0F840800170FFF706FD72
:1087C0000020BDE8F883F8B515460A4606461C4663
:1087D00069461046069F15F095FA002809D10098C1
:1087E000172186600587848707640170FFF7EEFC18
:1087F0000020F8BD7CB50E46002101911D461446AF
:1088000001A915F073FA002806D1019814F0FEFFB3
:10881000C01EA04201DA97207CBD01980095234636
:10882000818932465220FDF78BFAC0B27CBDF0B58B
:10883000002423460125C65C002205FA02F73E42C9
:1088400007D08C4203D102EBC300C0B2F0BD641C60
:10885000A4B2521CD2B2082AEFD35B1CDBB2052BA8
:10886000E9D3FF20F0BD10B50446FDF753FEA0B2DA
:1088700015F066F9BDE8104018F05ABA03480449EB
:10888000401A044909680858704700000021000296
:108890000020000200300002004870472516020246
:1088A0000348006808B1322070470A207047000072
:1088B000D83E002008B1002070470148006870478A
:1088C000E03E00204278891A0844B0F8030070475F
:1088D00002480088C0F3002070470000C83F002015
:1088E0002DE9FC41164C18271E46D4F808C0BCF1EF
:1088F000000F11D04978D9B12178002579B1FCF762
:108900008FFB237862882570658002B03946304637
:10891000BDE8F04115F0BABC03230022F5E70023BF
:1089200000950195B0F8040102221946E04701E0E4
:10893000FCF776FB192030700120BDE8FC810000B7
:10894000AC3E00202DE9FF4F87B01D46DDE91473D2
:108950008946824600264FF0060B0124B0463A466F
:1089600029463248FBF7DAFBBD4204D81DB1DAF8DC
:108970002001009046E0012351E06846FCF71BFE11
:10898000BDF8080008B1A8423CD3B8423DD8CEB1EA
