:020000040200F8
:10200000001F124069320002B73200022530000280
:10201000BB320002BD320002BF32000200000000ED
:102020000000000000000000000000001531000268
:10203000C3320002000000002D310002FB3000021C
:10204000C9320002C932000241420002CD3B000207
:10205000BD3B00029D4300028D4300027D43000210
:10206000DD430002B5400002F53A0002293D0002BE
:10207000613D0002C9320002093B00022142000218
:1020800071420002E93C0002BD430002AD43000280
:10209000D93C0002C93C00023D3B0002193D000250
:1020A00085400002C9320002F93C0002093D0002ED
:1020B0001142000201420002F1410002CD43000240
:1020C000ED3F0002DD3F000231420002D540000238
:1020D000C540000295400002A5400002E540000214
:1020E000F54000020541000215410002C93200021C
:1020F000C9320002C9320002E53A0002020004249B
:1021000000B00202BC54002038810200010001002E
:10211000FFFFFFFFFFFFFFFFFFFFFFFFFFFFFFFFCF
:10212000FFFFFFFFFFFFFFFFFFFFFFFFFFFFFFFFBF
:10213000FFFFFFFFFFFFFFFFFFFFFFFFFFFFFFFFAF
:10214000FFFFFFFFFFFFFFFFFFFFFFFFFFFFFFFF9F
:1030000000200002DFF810D000F048FA0048004726
:1030100009000202AFF30080BC54002032B58047A3
:1030200032BD00BF1EF0040F0CBFEFF30880EFF3BA
:103030000980816941F6A902C0F2022210472C4B97
:1030400019680868B0E8F04F80F30988BFF36F8F04
:103050004FF0000080F31188704700BF00000000AF
:103060000748006880F308884FF0000080F3148858
:1030700062B661B6BFF34F8FBFF36F8F00DF000002
:1030800098011240DFF80C00016841F47001016002
:10309000704700BF88ED00E0EFF30980BFF36F8F4A
:1030A000134B1A681EF0100F08BF20ED108A20E99C
:1030B000F04F106009B44FF0080080F31188BFF39F
:1030C0004F8FBFF36F8F23F059FC4FF0000080F358
:1030D000118809BC19680868B0E8F04F1EF0100F9D
:1030E00008BFB0EC108A80F30988BFF36F8F704778
:1030F00048000020EFF30580704704480068044949
:10310000884201F02581016C084700BF04000020BF
:10311000F07C020203480068034988428FD0416C6A
:10312000084700BF04000020F07C0202034800684A
:1031300003498842B0D0816C084700BF04000020DA
:10314000F07C020200B51A4422F0030203460F4845
:103150000068C0050ED1EFF3148080070AD5EFF3A5
:10316000098082F3098801B40846984701BC80F3BE
:10317000098800BDEFF3088082F3088801B408468F
:10318000984701BC80F3088800BD00BF04ED00E053
:1031900044F6206000BF401EFCD128472DE9FE5FA9
:1031A0000746EFF31080EFF31181EFF31282EFF394
:1031B00013830FB445F28820C2F20000224D05604F
:1031C000EFF30881EFF30982EFF31483EFF3038445
:1031D00041608260C3600461781E0DD0B81E05D0C6
:1031E0001A48016841F0010101600AE018480168CD
:1031F00041F00101016004E01548016841F004015B
:10320000016043F29110C0F200200047114841686C
:103210008268C368046981F3088882F3098883F3AC
:10322000148884F30388BFF34F8FBFF36F8F0FBCF5
:1032300080F3108881F3118882F3128883F3138856
:10324000BDE8FE5F704700BF0D320002040311406D
:10325000A80110408852002040BA704740BA704719
:10326000C0BA7047C0BA70471848016811F0010F22
:1032700021F0010101600ED01548016821F0020122
:1032800001601448016841F4806101601248804780
:103290001248006800470E48016821F002010160F1
:1032A0000C48016841F4806101600D4880470D4879
:1032B00000470D480047FEE7FEE7FEE7FEE7FEE7B2
:1032C000FEE7FEE7FEE7FEE7FEE700001001104024
:1032D000080000401C000040AD6900028852002038
:1032E000F56800029D340002090002022DE9F00396
:1032F0005FEA930C6FD000BF30F8024B31F8026BDD
:1033000030F8025B31F8027B14FB06F84FEA68489C
:1033100015FB07F9A8EB694822F8028B14FB07F4A8
:10332000641415FB06F504EB654422F8024B30F8F3
:10333000024B31F8026B30F8025B31F8027B14FB70
:1033400006F84FEA684815FB07F9A8EB694822F828
:10335000028B14FB07F4641415FB06F504EB6544BB
:1033600022F8024B30F8024B31F8026B30F8025B66
:1033700031F8027B14FB06F84FEA684815FB07F9A1
:10338000A8EB694822F8028B14FB07F4641415FBC0
:1033900006F504EB654422F8024B30F8024B31F895
:1033A000026B30F8025B31F8027B14FB06F84FEA3F
:1033B000684815FB07F9A8EB694822F8028B14FB53
:1033C00007F4641415FB06F504EB654422F8024B80
:1033D000BCF1010C90D113F0030304BFBDE8F0036E
:1033E000704700BF30F8024B31F802CB30F8025B77
:1033F00031F8026B14FB0CF77F1415FB06F8A7EBF2
:10340000684722F8027B14FB06F4641415FB0CFCDD
:1034100004EB6C4C22F802CB5B1EE3D1BDE8F00359
:103420007047000000F5005000B20028BCBF00F556
:10343000004000B281090B4BA0EB8110400233F930
:10344000112003EB410100B2C0F5004349885A4303
:10345000121410FB01F000EB02400014400000B217
:1034600070470000B496020281090B4BA0EB81105B
:10347000400233F9112003EB410100B2C0F50043D3
:1034800049885A43121410FB01F000EB024000146B
:10349000400000B270470000B4960202064C074D8F
:1034A00006E0E06840F0010394E807009847103414
:1034B000AC42F6D3FFF7AAFDACA00202CCA00202F8
:1034C0002DE9F05F0546002092469B468846064659
:1034D000814640241BE0284641464746224600F0EC
:1034E0009EF853465A46C01A914110D311461846C9
:1034F000224600F085F82D1A67EB01084F46224658
:103500000120002100F07CF817EB00094E41201E3D
:10351000A4F10104DFDC484631462A464346BDE8B3
:10352000F09F00000649074A0868504343F23902F9
:103530001044086040087047014908607047000067
:10354000D80300206D4EC64110B5431A934209D2EC
:103550008318881803E010F8011D03F8011D521E9E
:10356000F9D210BD40EA01039B0703D009E008C966
:10357000121F08C0042AFAD203E011F8013B00F838
:10358000013B521EF9D210BDD2B201E000F8012B6E
:10359000491EFBD270470022F6E710B513460A46D3
:1035A00004461946FFF7F0FF204610BD421C10F8F4
:1035B000011B0029FBD1801A704730B5044600205A
:1035C000034600E05B1C934203D2E05CCD5C401BF1
:1035D000F8D030BD30B50B46014600202022012432
:1035E00009E021FA02F59D4205D303FA02F5491BD1
:1035F00004FA02F52844151EA2F10102F1DC30BDE7
:10360000202A04DB203A00FA02F1002070479140A2
:10361000C2F1200320FA03F3194390407047202A97
:1036200004DB203A21FA02F00021704721FA02F36C
:10363000D040C2F1200291400843194670472DE95D
:10364000FE4F804681EA0300C00F0C46009021F037
:10365000004123F00045B8EB0200A94105D24046E5
:10366000214690461C460B46024623F0004010437C
:1036700047D0270DC7F30A00C3F30A510290401A3E
:10368000019040286BDAC3F3130040F4801B0098CC
:10369000924620B10023D2EB030A63EB0B0B019897
:1036A0005946C0F140025046FFF7AAFF06460D46B4
:1036B00050465946019A00F07BF910EB0800614131
:1036C000002487EA115284EAE7731A4340D0009A33
:1036D00062B3019A012A4FEA075215DC001B61EB25
:1036E00002014FF0004202EA0752CDE90042001CFD
:1036F00041F5801132462B4600F07BF903B0BDE85E
:10370000F08F40462146F9E7001B61EB0201001CE7
:1037100041F5801300185B412018A2F5001747EB14
:10372000030140EAD570B6196D4111E06D084FEA0A
:10373000360645EAC0754FEA0752001B61EB0201ED
:10374000001C41F5801149084FEA30000019514131
:1037500032462B4603B0BDE8F04F00F03BB900986D
:10376000012240000023D0EB020263EBE0730098DB
:1037700021464FEAE074B8EB000061EB0401E9E791
:1037800083F000435BE781F0004158E72DE9FE4FED
:1037900081EA030404F0004421F0004100944FF05A
:1037A000000B23F0004350EA01045ED052EA030408
:1037B0005BD0C3F30A54C1F30A552C44A4F2F3348A
:1037C0000194A0FB0254C1F3130141F48011C3F32F
:1037D000130343F4801301FB024400FB034E840AED
:1037E000970A44EA815447EA8357A4FB0768029585
:1037F0008D0A05FB07854FEA932C04FB0C54270523
:10380000029D4FEA065847EA1637B5EB08056EEBFE
:10381000070C870E920E47EA811742EA8312A7FB34
:103820000201B6EB0B0164EB00042B0D43EA0C33F1
:103830005E1844EB1C50DA465146E7FB0201C5F323
:1038400013044FEA0B3343EA14534FEA0432019C4A
:1038500043EA0603A4F10C040294009CCDE900B4F1
:1038600000F0C7F803B0BDE8F08F00200146F9E78B
:103870002DE9F04D81EA030404F0004B21F00045EE
:1038800014464FF0000A23F0004150EA050220D010
:1038900054EA01021DD0C5F30A570246C5F31303CB
:1038A000C1F31300C1F30A5640F4801543F48013AA
:1038B000A7EB0608101BD64608F2FD3873EB05008F
:1038C00002D308F1010801E092185B41B8F1000F42
:1038D00003DA00200146BDE8F08D00204FF480118E
:1038E000064684460EE0171B73EB050705D3121B33
:1038F00063EB050306434CEA010C49084FEA30002C
:1039000092185B4150EA0107EDD152EA030012D050
:1039100082EA040083EA0501084305D0101BAB418D
:1039200006D20122002306E000224FF0004302E00D
:103930006FF0010253101AEB06004CEB085110EB2C
:103940000A0041EB0B01BDE8F04D00F043B8C1F3B4
:103950000A52C1F3130140F2FF3341F480119A423D
:1039600002DA00200146704740F233439A42A2F245
:10397000334202DC5242FFF752BEFFF741BE000065
:1039800030B5041E71F1000404DB4FF000444042E6
:1039900064EB0101141E73F1000405DB1C464FF0BB
:1039A0000043524263EB0403994208BF904230BD8A
:1039B000202A06DBCB17203A41FA02F043EAE073F3
:1039C00006E041FA02F3D040C2F1200291400843E0
:1039D0001946704710B5141E73F1000408DA401C34
:1039E00041F1000192185B411A4301D120F001001E
:1039F00010BD2DE9F04D92469B4611B1B1FA81F20E
:103A000002E0B0FA80F220329046FFF7F9FD04465A
:103A10000F4640EA0A0041EA0B0153465A46084362
:103A200013D0114653EA010019D0C8F140025046A4
:103A3000FFF7F5FD05460E46504659464246FFF74C
:103A4000DFFD084305D0012004E020463946BDE8EB
:103A5000F08D0020054346EAE0762C4337430A9870
:103A60006305E40AA0EB08000022FD0A44EA47547B
:103A70000A3002D500200146E9E701051019694125
:103A8000DDE9084500196941BDE8F04DA2E770B5D0
:103A90008C1810F8015B15F0070301D110F8013BF9
:103AA0002A1106D110F8012B03E010F8016B01F880
:103AB000016B5B1EF9D12B0705D40023521E0DD4D8
:103AC00001F8013BFAE710F8013BCB1A921C03E026
:103AD00013F8015B01F8015B521EF9D5A142D8D35E
:103AE000002070BD02482421C06807F09BBC000084
:103AF000000000200348016841F02001016001201E
:103B00001CF050BF0000134002480921C06807F0B4
:103B100089BC0000000000201DF0AAFA054C064DEB
:103B20002068416A286888470028F9D11DF0F4F917
:103B3000F6E70000040000201400002002481021D5
:103B4000C06807F06FBC0000000000200448006857
:103B50000122C0F308010A20891E07F08BBC000077
:103B600004ED00E007480068C0050AD1074806498F
:103B70004068814201D122F04BBB002801D0406B4C
:103B80000047704704ED00E0F07C020200000020D6
:103B900007480068C0050AD10748064940688142C5
:103BA00001D122F057BB002801D0806B004770473D
:103BB00004ED00E0F07C0202000000200248012138
:103BC000C06807F02FBC000000000020024802215E
:103BD000C06807F027BC00000000002010B5C368D3
:103BE000D9B280290FD98468A06800B101204B2286
:103BF00013A101F0BBFBA16819B1E068BDE810405A
:103C0000084772B6FEE70446008A616982B2D8B2FC
:103C1000124B1B68984706F0BBFF00280FD1E068E5
:103C2000022806D004280AD1A069BDE8104006F099
:103C3000A9BFA08BA169BDE8104006F0A1BF10BDCF
:103C40004863695F696E7465726E616C5F747261FE
:103C50006E73706F72742E6300000000BC01002050
:103C60001FB541680A2914D007DC09B105291FD105
:103C700004B0BDE81040FFF7B1BF0B2919D00C29E3
:103C800016D1018AC268406904B089B2BDE810400B
:103C900010470C491EC98DE81E00C1680191416999
:103CA0000291008AADF80C001021684606F0A8FDCC
:103CB0001FBD018A8AB24169C06804B0BDE81040E6
:103CC00008F086BC0080020202480E21C06807F09E
:103CD000A9BB00000000002002480F21C06807F0C7
:103CE000A1BB00000000002002480B21C06807F0C3
:103CF00099BB00000000002002481221C06807F0B4
:103D000091BB00000000002002481321C06807F0AA
:103D100089BB00000000002002481121C06807F0A4
:103D200081BB00000000002070B50B4D686D40069F
:103D300011D52C6E402002F05DFE286EA04328664F
:103D4000002C08D005480078400604D52046BDE880
:103D5000704021F059BE70BD0000114040000020AD
:103D60002DE9F04F8FB00020DFF82CB2DFF82C9255
:103D7000DFF82C8242F26C5A0090D9F858004D4678
:103D80000990D9F854005646099C0A9034403040B6
:103D9000A04208D098F80000800604D5082209A99E
:103DA000052021F09FFE9BF80000800601D524F439
:103DB000A274002C75D098F80000000604D5E1B27A
:103DC000220A082021F002FE204602F013FEB2462D
:103DD00000272E46A00604D521F04CF9012002F060
:103DE00053FAA00401D515F0B1FE60077DD5D6F8D1
:103DF0000C51002D79D06B4805432D1F049595F883
:103E0000C6008DF8180095F826008DF81900D5F831
:103E1000BC000590D5F8B8000090B5F8C610C3B244
:103E2000CAB2032B02D0042B2FD126E0052A06D0DC
:103E3000162A1CD0172A1AD0182A26D117E05A4859
:103E4000016B0291097901F00F0107291DD1029937
:103E50004979890619D50021C6F80C11806B15F037
:103E6000FFFB51480299103011F072FD20E0002054
:103E7000C6F80C01D5F8C00018E04C4AC0F30B207E
:103E800052F8200008B117290CD004A94FF40030D3
:103E9000009A15F0F8FC47B395F8B800032810D144
:103EA0000DE075E00021C6F80C1140690FF0D2FB5F
:103EB000012704A97804009A15F0E5FCECE711F05D
:103EC000B1FD97B1E0051DD4756D51460D40002040
:103ED0004CF25032EB0504D4756D401C0D409042FD
:103EE000F8DB284602F086FD00E00BE042F2040019
:103EF00084432C4340F24F122DA1C4F3002001F063
:103F000035FA67E7600502D503201CF04BFD60061B
:103F100015D5356E35B198F80000400602D5284613
:103F200021F072FD280E800709D5D6F80C0130B1BA
:103F30001C49084310F8C01F41F001010170E00561
:103F40001BD5C7B1049830F8681FADF81C10408825
:103F5000ADF81A009DF81910884204D20020ADF87F
:103F60001A10ADF81C0004A94FF00210009A15F0C9
:103F70008AFC600601D514F0CDF998F8000000061F
:103F80007FF5FBAEE1B2220A092021F01FFDF4E625
:103F90000FB0BDE8F08F0000C40100200000114008
:103FA0004000002000001040104E0020A0540020CF
:103FB0006474626C652E6300074A131D5980116892
:103FC00060F307011160106840F400701060106821
:103FD0008005FCD4704700000804114002481C21F1
:103FE000C06807F01FBA00000000002002481B2133
:103FF000C06807F017BA00000000002000F01F02A0
:10400000012191404009800000F1E020C0F88012B9
:10401000704700F01F02012191404009800000F12B
:10402000E020C0F800117047C906090E002806DA22
:1040300000F00F0000F1E02080F8141D704700F13F
:10404000E02080F800147047024A11400143024802
:104050000160704780FFFF1F08ED00E000B589B0E8
:10406000416803910021CDE90110044869460068C8
:10407000826903480068904709B000BD0400002031
:104080002C00002002481421C06807F0CBB90000C2
:104090000000002002481521C06807F0C3B90000E5
:1040A0000000002002481621C06807F0BBB90000DC
:1040B0000000002002480721C06807F0B3B90000E3
:1040C0000000002002481E21C06807F0ABB90000C4
:1040D0000000002002481D21C06807F0A3B90000BD
:1040E0000000002002481F21C06807F09BB90000B3
:1040F0000000002002482021C06807F093B90000AA
:104100000000002002482121C06807F08BB90000A0
:104110000000002002482221C06807F083B9000097
:10412000000000202F492E48C1F890012E48C1F808
:1041300094014FF40040086342F2412048632B4849
:10414000826942F080428261026922F07F7202F548
:1041500040020261826922F4700202F580128261DB
:10416000826942F47022826182696FF30F02103219
:1041700082614A6A22F4601202F500224A624A6AA7
:1041800022F4F85202F500724A62826922F07C52EF
:1041900002F1C8528261D1F8602122F4FC0202F5DA
:1041A000B402C1F86021016801680E2262F31F7138
:1041B00001608168C90D21F0F00141F03002816891
:1041C00062F3DE518160C168C168022262F38A1124
:1041D000C16001680168092262F34401016070470F
:1041E00007060204000010400103040500201040EF
:1041F00002481721C06807F015B900000000002030
:1042000002481821C06807F00DB900000000002026
:1042100002481921C06807F005B90000000000201D
:1042200002480821C06807F0FDB800000000002027
:1042300002482321C06807F0F5B800000000002004
:1042400002480021C06807F0EDB80000000000201F
:10425000014800F003B80000B800104001460868AB
:104260000A688242FBD10A688242F8D17047000096
:1042700002480A21C06807F0D5B8000000000020FD
:1042800001494872704700005001002010B54FF0FE
:1042900080446068400409D500F00CF8216811F0F2
:1042A0000F0100D10121B0FBF1F010BD004810BD9D
:1042B00000366E010C48D0F8A801C00211D54FF0AD
:1042C0008041086C0A6CC0F34500C2F3C53210FB94
:1042D00002F0064A096CB2FBF0F0C1F3C711484383
:1042E00070470020704700000000104000366E014B
:1042F0004FF08041012806D0022803D1C86820F081
:104300008000C8607047886820F4844088607047E7
:104310004FF08041012806D0022803D1C86840F040
:104320008000C8607047886840F4844088607047A7
:104330004FF08041012806D0022803D1C86840F020
:104340008000C8607047886840F484408860704787
:1043500010B5082080F31188BFF34F8FBFF36F8F24
:1043600023F0FAF918B104494FF08050086000209A
:1043700080F3118810BD000004ED00E00248032125
:10438000C06807F04FB80000000000200248042178
:10439000C06807F047B8000000000020024805216F
:1043A000C06807F03FB800000000002002480C2160
:1043B000C06807F037B800000000002002480D2157
:1043C000C06807F02FB800000000002002481A2142
:1043D000C06807F027B8000000000020024806214E
:1043E000C06807F01FB80000000000200FB4054BA4
:1043F00010B503A9044A029800F0FEF810BC5DF85D
:1044000014FB000025730002DC0300200FB4084BEE
:1044100010B504A902AA039800F0EEF8044602A918
:10442000002000F097FE204610BC5DF814FB000051
:1044300055510002014B024A00F0E0BA2573000218
:10444000DC03002070477047704770477047704723
:104450007047704702E008C8121F08C1002AFAD14D
:1044600070477047002001E001C1121F002AFBD1F4
:10447000704700002DE9FF5F82B00021DDE90430C4
:10448000020DDDF840B0034318D044F61050A2F2FC
:10449000FF3242431514119801281FD0A5EB0B00E1
:1044A000401C5FEA000A4FF000064E4FDFF83891DB
:1044B000B046504615D5CAF1000413E01198012406
:1044C0004AA3012801D16FEA0B010298119AC0E9B1
:1044D0000031C0E9024206B0BDE8F09FCBF1000018
:1044E000DFE704460021404A491842EB0450CDE979
:1044F000001012E0E00707D032463B4640464946EE
:10450000FFF744F98046894632463B461046194635
:10451000FFF73CF906460F466410002CEAD1DDE9AE
:104520000401DDE90023BAF1000F06DAFFF72EF9E6
:1045300042464B46FFF72AF905E0FFF799F9424654
:104540004B46FFF795F904460E460022284BFFF72D
:1045500017FA03D84FF0FF30014607E00022254B41
:1045600020463146FFF76BF8FFF7F1F9102409E018
:10457000002C0ADB0A220023FEF7A2FF039B303245
:104580001A55641E50EA0102F2D1641C039AC4F168
:1045900011031444119A012A03D0012208430DD1BA
:1045A0000AE0084304D000204FF0110B119072E78D
:1045B000A3EB0B056D1E0DE05B4504DD4FF0000223
:1045C00005F1010504E003DA4FF00002A5F1010551
:1045D000002AECD002981199C0E90231C0E90045E7
:1045E00079E70000000014400000F03F30000000B8
:1045F0000000F0430000E03F2DE9FF4F8DB00F4673
:104600000546002606E025280BD0DDE90F1290476D
:104610006D1C761C28780028F5D111B03046BDE815
:10462000F08F0024A246A1460122E94900E004439C
:1046300015F8013F203B02FA03F00842F7D1287831
:104640002A2810D06FF02F022878A0F13001092914
:1046500014D80AEB8A0102EB410144F0020400EB9A
:10466000010A6D1CF0E701CF5FEA000A03D544F4AC
:104670000054CAF1000A44F002046D1C28782E2868
:1046800017D115F8010F44F004042A280ED06FF05A
:104690002F022878A0F1300109290AD809EB8901F5
:1046A00002EB410100EB01096D1CF2E757F8049B96
:1046B0006D1C28786C280FD006DC4C2817D0682891
:1046C0000DD06A2814D104E0742810D07A280FD1B4
:1046D0000DE044F400140AE044F4801401E044F4D2
:1046E00040146978814202D104F580146D1C6D1C60
:1046F00028786E281ED00CDC632830D004DC00281B
:104700008BD0582811D19FE0642867D069280CD13C
:1047100064E073282DD004DC6F2872D0702804D197
:1047200094E075286ED078286DD0DDE90F1290479F
:10473000761C4BE1C4F30250022806D0032809D0AE
:10474000042801CF09D0066040E101CFF117C0E98C
:1047500000613BE101CF068038E1067036E117F8D1
:10476000040B8DF8000000208DF80100EB460120BD
:1047700003E057F804BB4FF0FF3061074FF0000132
:1047800002D40DE008F10101884649450FDA804561
:10479000F8DB1BF808100029F4D108E008F101014A
:1047A00088468142FADB1BF808100029F6D1DDE9C2
:1047B0000F23AAEB08008146214600F09DFC3044FF
:1047C00000EB080604E0DDE90F121BF8010B90472F
:1047D000B8F10108F7D221464846F2E00A21C4F3B5
:1047E00002524FF0000B0891022A04D001CFC117EA
:1047F000032A09D00AE0FF1D27F00707F7E80201A6
:1048000008E02CE01EE01FE000B2C117042A01D12D
:1048100040B2C117021E71F1000206DA0023D0EB8C
:10482000030063EB01012D2202E0220504D52B22B7
:104830008DF82420012203E0E20701D02022F7E7CF
:10484000904653E00A210BE0102109E010214FF0BF
:10485000000B44F004044FF00809089103E008211C
:104860004FF0000B0891C4F30252022A04D001CF8A
:104870000021032A06D006E0FF1D27F00707F7E80E
:10488000020103E080B2042A00D1C0B24FF0000858
:1048900022072BD52A78702A07D0DDF820C08CF0AB
:1048A000100C5CEA0B0C05D00EE040228DF82420A1
:1048B000012208E050EA010306D030238DF82430AD
:1048C0008DF8252002229046089B83F0080353EAC6
:1048D0000B030BD150EA010201D1620706D5302249
:1048E0008DF824204FF00108A9F101092A78582AEF
:1048F00004D038A20B9208AA0A920BE03AA2F9E778
:104900005B46089AFEF7DCFD0B9B9B5C0A9A521EE5
:104910000A92137050EA0102F2D10A98ADEB00003E
:1049200000F1200B600702D524F4803401E04FF041
:104930000109D94502DDA9EB0B0000E0002000EBE6
:104940000B0141440890AAEB010AE00306D4DDE91B
:104950000F232146504600F0CFFB06444FF00009DC
:1049600008E009A911F80900DDE90F12904709F1E3
:104970000109761CC145F4DBE0030CD5DDE90F230A
:104980002146504600F0B8FB064404E0DDE90F1272
:1049900030209047761C0899481E08900029F5DCC5
:1049A00008E00A980A990078491C0A91DDE90F127B
:1049B0009047761CBBF10001ABF1010BF1DC214605
:1049C0005046DDE90F2300F073FB06446D1C21E621
:1049D00009280100303132333435363738396162D5
:1049E0006364656600000000303132333435363799
:1049F0003839414243444546000000002DE9FF4F4D
:104A000095B09A46884606460025EEE1252877D1DE
:104A100000242746F94A0121039400E0044316F8D4
:104A2000013F203B01FA03F01042F7D130782A28E9
:104A300011D06FF02F033078A0F13002092A16D878
:104A4000039A44F0020402EB820203EB4202104498
:104A5000761C0390EFE758F8042B0392002A03DA40
:104A6000504244F40054039044F00204761C307821
:104A70002E2816D116F8010F44F004042A280DD070
:104A80006FF02F023078A0F13003092B09D807EB23
:104A9000870302EB4303C718761CF3E758F8047B3F
:104AA000761C30786C280FD006DC4C2817D068288C
:104AB0000DD06A2814D104E0742810D07A280FD1C0
:104AC0000DE044F400140AE044F4801401E044F4DE
:104AD00040147278824202D104F58014761C761C50
:104AE000307866280BD013DC582877D009DC0028F2
:104AF00075D04528F6D04628F4D047281AD193E13E
:104B000018E0632835D0642879D0652812D18BE16C
:104B1000702873D008DC6728F1D069286FD06E2820
:104B20000DD06F2806D1ACE073282CD0752874D036
:104B3000782853D05246179990476D1C54E1C4F31E
:104B40000250022809D003280DD0D8F800100428FC
:104B50000DD00D6008F1040846E1D8F80010EA17FE
:104B6000C1E90052F6E7D8F800100D80F2E70D70A9
:104B7000F0E718F8041B8DF8001000208DF80100F4
:104B8000EB46012003E058F804BB4FF0FF3061070B
:104B90004FF0000102D40DE009F101018946B9424C
:104BA0000FDA8145F8DB1BF809100029F4D108E081
:104BB00009F1010189468142FADB1BF8091000293D
:104BC000F6D103985346A0EB090721463846179AB9
:104BD00000F0A9FA284400EB090507E044E008E1E9
:104BE0000DE01BF8010B524617999047B9F10109E6
:104BF000F7D2534621463846179AF2E039E00A21A7
:104C0000C4F302524FF0000B0091022A06D058F86C
:104C1000040BC117032A09D00AE023E008F10700BA
:104C200020F00702F2E80201904605E000B2C11749
:104C3000042A01D140B2C117002906DA0A46002130
:104C4000404261EB02012D2202E0220504D52B2215
:104C50008DF80420012203E0E20701D02022F7E7CB
:104C6000914657E00A2100E010214FF0000B00911F
:104C70000BE010214FF0000B44F0040408270091D2
:104C800003E008204FF0000B0090C4F30252022A08
:104C900005D058F8040B0021032A08D008E008F1D9
:104CA000070020F00702F2E80201904603E080B21C
:104CB000042A00D1C0B24FF0000922072AD5327869
:104CC000702A07D0DDF800C08CF0100C5CEA0B0CE9
:104CD00005D00EE040228DF80420012208E050EAC1
:104CE000010306D030238DF804308DF80520022210
:104CF0009146009B83F0080353EA0B030AD150EA64
:104D0000010201D1620705D530228DF804204FF051
:104D100001097F1E3278582A04D039A20C920CAABD
:104D200002920BE03BA2F9E75B46009AFEF7C8FB54
:104D30000C9B9B5C029A521E0292137050EA010275
:104D4000F2D1029804A9081A00F1200B600702D5DD
:104D500024F4803400E001275F4502DDA7EB0B005F
:104D600000E0002000EB0B01009003984944401A3A
:104D70000390E00306D453462146179A039800F0A7
:104D8000D2F90544002706E001A85246C05D1799F4
:104D900090476D1C7F1C4F45F6DBE0030CD5534656
:104DA0002146179A039800F0BEF9054404E030202C
:104DB0005246179990476D1C0099481E0090002993
:104DC000F5DC08E00298029952460078491C0291ED
:104DD000179990476D1CBBF10001ABF1010BF1DCA1
:104DE0005BE100F077F90544761C307800287FF409
:104DF0000DAE19B02846BDE8F08F0000092801006B
:104E00003031323334353637383961626364656640
:104E10000000000030313233343536373839414202
:104E20004344454600000000600700D4062708F10F
:104E3000070020F00700F0E80223804603F0004C52
:104E40005FEA0C0001D097A009E0200501D596A0EB
:104E500005E0E00701D095A001E0AFF24C0013900F
:104E6000307823F0004365280CD006DC452809D0B3
:104E700046281DD047287FD13BE0662818D06728F8
:104E80007AD136E00021112F01DB112000E0781CDF
:104E9000CDE9000104A90CA8FFF7ECFADDE90D014A
:104EA0000C9A4FF0000B07F10109109200914EE0AF
:104EB0004FF000400097CDE9011004A90CA8FFF7BE
:104EC000D9FADDE90D020C9B0F994FF0000B9146CA
:104ED0001093009211B9791C00EB0109B7EB09009E
:104EE00003D4C0F1FF3B07F10109A9EB07000190D2
:104EF00042E0012F00DA01270021112F01DD1120EE
:104F000000E03846CDE9000104A90CA8FFF7B2FA89
:104F1000DDE90D010C9A00914FF0000BB94610929B
:104F200021070FD4009A4A4503DA914601E0A9F11E
:104F30000109B9F1010F05DD109AA9F10101515CD8
:104F40003029F4D0B84202DA10F1040F03DA01215B
:104F5000CDE9011010E0002803DC8344A9EB000137
:104F600002E0411C494500DD8946A0EB0B00401CD6
:104F700001904FF000400290200705D40198484569
:104F800002DB4FF0FF30019000208DF84B000298BB
:104F90000DF14B07B0F1004F25D002200C902B20D3
:104FA0000D90029800280CDA404202902D200D90BE
:104FB00007E00A210298FEF70DFB3031029007F856
:104FC000011D0C99481E0C900029F2DC0298002863
:104FD000EFD1791E0D980870307800F0200040F075
:104FE000450007F8020D11A8C01BC01D02901398C0
:104FF000007800B1012000EB0901019801EBE0719C
:10500000029801440398401A401E0390E00306D41E
:1050100053462146179A039800F085F805441398E3
:10502000007818B15246179990476D1CE00323D5BC
:1050300053462146179A039800F075F805441BE083
:10504000BBF1000F07DB0098584504DD1098179955
:1050500010F80B0001E01799302052469047019854
:105060000BF1010B401E05F10105019004D12E202A
:105070005246179990476D1CB9F10001A9F1010939
:10508000DEDC05E017F8010B5246179990476D1CBE
:105090000299481E02900029F4DC53462146179AD3
:1050A00003989EE62D0000002B0000002000000069
:1050B0002DE9F041044600251E461746880404D415
:1050C00005E039462020B0476D1C641EF9D52846FE
:1050D000BDE8F0812DE9F041044600251E46174643
:1050E000880404D405E039462020B0476D1C641EB6
:1050F000F9D52846BDE8F0812DE9F04104460025A8
:105100001E469046C80301D5302700E020278804BA
:1051100004D505E041463846B0476D1C641EF9D5FC
:105120002846BDE8F0812DE9F041044600251E46E1
:105130009046C80301D5302700E02027880404D515
:1051400005E041463846B0476D1C641EF9D5284637
:10515000BDE8F0810A68531C0B60107070470000B6
:105160002DE9F05F064600880B46C0F30B0083462E
:1051700005F0B4FA0400707875884FEA10170AD069
:1051800005F10408984509D02A1DBDE8F05F1946CD
:105190003448FFF75BB9594633A01DE001F024FA0B
:1051A00007F00301002740F2031AE061012903D050
:1051B00002292BD03BA00FE0A08C58B14119B1F5CA
:1051C000827F0DD35B4652464648FFF73FF9A784DE
:1051D000BDE8F09F594644A0BDE8F05FFFF736B93F
:1051E000216A2A460844311D0E30FEF7ADF9A08C25
:1051F000284481B2A184E08C083081422ED3206AF9
:105200000E3005F0D7FAE784A78427E0A08C20B100
:1052100059464448FFF71AF9A784B788381D8146D4
:10522000854205D31FFA88F1304605F0C3FA15E030
:10523000FF2D07D95B465246291DBDE8F05F3A486D
:10524000FFF704B9206A2A1D31460E30FEF77CF9BB
:10525000A4F82480E784216AA1F81090BDE8F05FEB
:1052600005F0E0BD709D02026863692E633A20611B
:10527000636C5F68616E646C65722063616C6C6501
:10528000642077697468206E6F6E2D72656769732C
:1052900074657265642068616E646C652025752193
:1052A000000000006863692E633A2061636C5F68E8
:1052B000616E646C65722063616C6C6564207769F3
:1052C000746820696E76616C6964207061636B65D7
:1052D0007420626F756E6461727920666C616773A9
:1052E000202575002C9E020241434C20436F6E74B2
:1052F00020467261676D656E7420627574206E6FF2
:1053000020666972737420667261676D656E7420C1
:10531000666F722068616E646C652030782530326B
:10532000780000001C9D0202809E020270B5074CAE
:10533000054654F83500002807D104EBC500406845
:1053400080001CF00FFE44F8350070BD9C01124037
:1053500010B505494FF6FF7302E084788C54C01CE9
:1053600002889A42F9D110BD0000124010B50B46D8
:10537000002803D11146184607F0B8FF10BD70474A
:105380001CB506498C68002C07D0002100910191C2
:10539000B0F804010B460322A0471CBDB00000205A
:1053A00070B50C4600281DD1052C1BD20E4D4FF4B4
:1053B000927655F8240020B9304601F029F845F8D6
:1053C000240005000ED031462846FEF7E4F8A5F883
:1053D000044105F58071204603F0A4F84FF0FF303A
:1053E000A5F8060170BD0000584B0020F8B5164620
:1053F000028A069F521A94B2C288D2050AD50B4A75
:1054000055683DB1009300890A4601463346384647
:10541000A847F8BD9C4200D91C4640692246014479
:105420003046FEF791F82046F8BD0000B00000209D
:10543000042106F08FB9042107F0DAB902490860A7
:105440000421024807F048B9BC000020E5590002D9
:10545000024948600421024807F03EB9BC00002020
:10546000E5590002042106F075B9042107F0C0B91E
:1054700000B58BB0D0F82001009023E0684600F022
:105480004EFABDF8081000291ED0BDF806200FA066
:10549000FEF7D8FFBDF806008005039808D506A9D9
:1054A0001CF026FF06A820F045FD014611A001E0F2
:1054B000018811A0FEF7C6FFBDF8101010A0FEF77E
:1054C000C1FF00980028D9D10BB000BD48616E64BF
:1054D0006C653A203078253034782C20666C616712
:1054E000733A203078253034782C20757569643A09
:1054F00020000000257300002530347800000000F3
:105500002C2076616C75655F6C656E3A2025752C74
:105510002076616C75653A2000000000064A30B4C0
:105520001468002C06D00B46A4460246002130BC6D
:105530000420604730BC7047C40000207CB514468E
:10554000042819D120783E283FD016DC052855D0F4
:10555000082801D030280FD1B2F80350284600F0B7
:10556000E9F8040008D028461DF067FE04F8FD0F96
:1055700028461DF009FB60707CBDD7285ED0D82876
:105580004DD0DA28F8D1608800F0D4F80500F3D0C7
:10559000B5F8040105F0A2F80600EDD02079317AC3
:1055A0008842E9D16946601D1CF0B4FE06223146EE
:1055B0006846FEF702F80028DED1E07A85F8FF00A1
:1055C000B5F80401FFF751FF7CBDA078012803D096
:1055D0000A2801D02928F7D1D41C9188D078FFF768
:1055E000DFFEB4F8010000F0A5F80500ECD0B4F837
:1055F00001001EF0A7FAA5F806017CBDB2F8035021
:10560000284600F097F80400F7D000F079FC204617
:1056100000F004FF0F49002041F825007CBD6088A0
:1056200000F088F80500F9D0B4F80B0001B2A5F835
:10563000061109A0FEF707FF284608E0508800F091
:1056400079F80028EAD04FF0FF31A0F8061100F0F9
:10565000ABFA7CBD584B0020534D5F4556454E5428
:105660005F4944454E544954595F5245534F4C5637
:10567000494E475F5355434345454445442069647B
:10568000202575003EB50C460546172903D306F0C4
:105690009DFFA04202D206F099FF044602208DF839
:1056A0000800ADF80940002000900190032302AAF1
:1056B0000421284607F08EFA3EBD3EB50C468DF813
:1056C000080000208DF8092000900190022302AA12
:1056D0000421204607F07EFA3EBD7FB50DF1200C77
:1056E00014469CE864008DF80800ADF80930ADF868
:1056F0000B20ADF80D10CDE90056072302AA0421B6
:10570000204607F067FA7FBD70B515000C4603D040
:10571000D0F82001206008E0002070BD204600F095
:10572000FEF82089A84203D020680028F6D170BD79
:10573000012070BD052803D2024951F820007047AE
:1057400000207047584B00202DE9FF411D460B7883
:1057500016460024B0F800214F1D9C460E2B71D038
:105760000BDCA3F102030B2B15D2DFE803F01C14B2
:105770002F1438144A145B146100182B71D006DC06
:10578000102B68D0122B7AD0162B04D17DE0522B2F
:1057900069D0D22B67D0614645A0FEF753FE04B016
:1057A0002046BDE8F0810646B1F8014006F00EFF44
:1057B000844202D2A6F8004101E0A6F800010324C9
:1057C0002C70B6F80001A5F80100E8E7B1F8033045
:1057D0000093B1F80130294603F086FC0FE0F61F74
:1057E000B4B2B1F80570B1F80360CB1DCDE9024346
:1057F000CDE90067B1F80130294603F0E1FB04462A
:10580000CDE70C462946072E01D8022300E01023DD
:10581000B4F80350CDE900530297B4F8013003F017
:1058200037FEECE7B1F80130294603F04DFFE6E71B
:10583000B1F803300093B1F80130294603F02AFD96
:10584000DDE7FFE7491C761E0091C6F34F032946AA
:1058500003F0C8FED3E70C462946072E04D80223DE
:1058600003E018E00BE01CE01023B4F80350CDE98E
:1058700000530297B4F8013003F07CFDBFE70092BB
:105880002B46324603F0ACFFB9E700922B46324676
:1058900003F0A2FCB3E700922B46324603F05EFB16
:1058A000ADE700922B46324603F06AFF77E700002F
:1058B000556E68616E646C65642041545420436F7A
:1058C0006D6D616E643A20253032582C204441546D
:1058D000413A20001CB50B4B1C68002C10D0B6239D
:1058E0008DF8003005238DF801308DF80200ADF8F9
:1058F0000310ADF80520072300216A460420A047C5
:105900001CBD0000C400002010B580B2FFF712FFDC
:10591000002803D0BDE8104000F0F2BA10BD10B569
:1059200001680A8882806AB14B88C3808C880481B0
:105930008C1DC4609B050CD5A2F11603038201F1F6
:1059400016030BE00021C1800181C1600182416129
:1059500006E0A2F10803038201F108031144436148
:10596000016010BD70B5044600890D4600281BD0AB
:10597000022A08D0E08880050BD51022E068FDF7E8
:105980001CFE80B111E009882046BDE8704000F09F
:105990000EB8084605F0CAFD002805D0E168A889C0
:1059A0000988884201D1012070BD002070BD70B50A
:1059B000044600890D46002810D0E0888005E06884
:1059C00008D505F0B3FD002808D0E0688089A8421A
:1059D00003D004E00088884201D1012070BD00207E
:1059E00070BD00002DE9F041194C06461F461546D2
:1059F0008846042809D0082E28D12878C00720D04E
:105A0000D4F800C01FE03046E047287878281DD140
:105A1000D4F804C0BCF1000F08D03B462A464146EA
:105A20003046E04704F056FD00280FD02468002CD3
:105A30000CD03B462A4641463046A446BDE8F041DC
:105A40006047D4F804C0BCF1000FDCD1BDE8F081A0
:105A5000BC0000202DE9F0410F46154604460146E2
:105A60001E46127828A0FEF7EEFC042C0CD0082C61
:105A700048D13846FFF75EFE040043D029781E293E
:105A800009D0522919D01FE0287878283AD1BDE8EA
:105A9000F04100F027B9B4F80801A8B104F5867008
:105AA00000F0A4FDB4F808210020A4F80801B4F81F
:105AB0000411BDE8F041FFF70DBF32462946BDE8AD
:105AC000F0410023FFF740BEFB2E06D93246BDE869
:105AD000F041FB231948FEF7B6BC227822B1BDE89D
:105AE000F0411748FEF7AFBC01202070A4F8026116
:105AF00032462946A01CFDF727FD2046BDE8F041AF
:105B000000F052B8BDE8F0816174745F7061636B3E
:105B100065745F68616E646C65723A207479706553
:105B2000203078253032782C207061636B65745B8F
:105B3000305D20307825303278000000089C020269
:105B4000BC9B020210B5B0F80001029CC01E80B2DE
:105B50001970A3F80120844200D8204610BD1FB55B
:105B600014468DF80800069AADF80930ADF80B2000
:105B7000ADF80D10002000900190072302AA042127
:105B8000204607F027F81FBD3EB50C468DF80800EB
:105B9000ADF80920002000900190032302AA0421FF
:105BA000204607F017F83EBD2DE9FF410446017875
:105BB00024A0FEF748FC207801282DD1A078D22817
:105BC00008D003202070B4F8040104B0BDE8F0410F
:105BD000FFF74BBC1DF0C8F90027E0B1B4F8020193
:105BE0000F2818D3B4F804011DF0D2FD002813D1FA
:105BF000B4F9060107F098F905000CD0B4F80211C9
:105C0000A4F10A000E58696C324611A0FEF71BFC85
:105C1000686CB04202D92770BDE8FF810220207075
:105C2000B4F803201749601DCDE90006CDE9021440
:105C3000B4F80201A1780F3883B205F134001DF0E9
:105C40009DF9E9E76174745F72756E3A202564000E
:105C5000415454205369676E6564205772697465B6
:105C60002C20444220636F756E7465722025752C5C
:105C7000207061636B657420636F756E746572204C
:105C8000257500006D5F0002FFF7ECBB0EB50B2120
:105C9000CDE900238DF80810012302AA042106F0A3
:105CA00099FF0EBD10B50848064C446004F0E6FBB1
:105CB0000548083044601CF0DFFCBDE81040034894
:105CC000FFF7C6BB3D550002C8000020555A000230
:105CD00000B5FFF72FFD10B1B0F8000100BD17208F
:105CE00000BD00002DE9F8430025144F144EA846CE
:105CF00057F82540E4B1207803280BD1204600F066
:105D000091F838B1607898B1B4F80401BDE8F8436F
:105D1000FFF7ABBB607858B10AA084F80180006837
:105D20000090346824B1022300216A460420A04771
:105D30006D1C052DDCD3BDE8F8830000584B002016
:105D4000C4000020B70000002DE9FE431F461646A0
:105D50000D468046FFF7EEFC040005D0B4F80801BC
:105D600020B19020BDE8FE835920FBE74046FFF7B5
:105D700079FB88B102AB2A461D2120460097FFF728
:105D8000E1FECDE90060032302AA0421404606F0AB
:105D900021FF060002D014E05720E3E7A4F80851E1
:105DA00004F5867042460849044600F053FC47F269
:105DB000305240F28241204600F036FC204600F08E
:105DC0000BFC3046CEE700000959000210B50C4626
:105DD00000F0C0F82046BDE8104000F0C1B82DE941
:105DE000FE431E4615460F468046FFF7A3FC0400FF
:105DF00014D04046FFF736FB90B102AB3A461B2168
:105E000020460096FFF79EFECDE90050032302AA2C
:105E10000421404606F0DEFEBDE8FE835920FBE784
:105E20005720F9E72DE9FC412F4E00270770044663
:105E3000B0F802213346811CFFF786FC0546A0F529
:105E40007F40FF3823D0042D0FD3307801280CD1A8
:105E50003079082809D194F8FE0030B1B4F8040173
:105E60001CF0B9FE78B1012811D085B100970197D7
:105E7000B4F804012B463246042106F0ABFE30781C
:105E8000032807D02DE0B4F804011EF053F90020D8
:105E9000BDE8FC81154AB4F80411B4F80001156896
:105EA00075B1B5228DF8002004228DF80120ADF8DF
:105EB0000210ADF80400062300216A460420A8471A
:105EC000B4F8040100F096F809480078C00708D03B
:105ED000B4F800010022001D81B2B4F8040101F001
:105EE00097FD0120D4E70000804C0020C400002072
:105EF000D80000200149086070470000C40000205D
:105F000010B5B0F8082104463AB1B4F80411912054
:105F1000FFF7E0FC0020A4F8080104F58670BDE856
:105F2000104000F063BB10B50246FFF703FC0028E9
:105F300006D001214170BDE810401046FFF795BA28
:105F400010BD10B50C46FFF7F5FB002801D0C0F8D6
:105F5000204110BD0149486070470000B00000209A
:105F60000149886070470000B00000207CB50446FD
:105F700000780A4602280ED1694610461CF0C7F97F
:105F8000B4F80211A01F014408226846FDF715FB72
:105F900010B1002020707CBDB4F80211A4F10A00F9
:105FA0000E58B4F9060106F0BFFF050001D001202C
:105FB00000E00020FB2207A1FFF7D8F945B1761CCD
:105FC0006E6403202070B4F80401FFF74EFA7CBD24
:105FD00072B6FEE76174745F7365727665722E63E4
:105FE000000000000A6882654968C16535210170BA
:105FF00002F012BC70B5054602F098FF04000BD009
:106000002846FFF797FB002806D0E28AB0F8001177
:106010008A4202D9A0F8002170BDE18270BD000063
:10602000F8B50446C0880E46C0050BD5064845683D
:10603000002D07D0002000900346024621893046FB
:10604000A8472082F8BD0000B00000207CB50E46B5
:10605000C98804460D0B00D06D1C94F8FD2094F8FF
:10606000FE00CDE9000294F8FF302A461048FEF702
:10607000E9F9F088410502D594F8FE1079B10005E0
:1060800002D594F8FF0060B1002D02DD94F8FD0008
:1060900048B194F8FD00A84207DA0C207CBD052029
:1060A0007CBD08207CBD0F207CBD00207CBD000095
:1060B0004C9B02023EB50C468DF808000699ADF8DF
:1060C0000920CDE90013032302AA0421204606F08B
:1060D00081FD3EBD2DE9F05F984614460D4682468F
:1060E0000F461646DDF828B014E0281900EBD070F2
:1060F00040108146594642469047824503D11FFAD7
:1061000089F0BDE8F09F504502D909F1010501E091
:10611000A9F10104A542E8DDBC4200DA3C46B542E3
:1061200000DD35465946204642469047504501D34A
:10613000A0B2E6E75946284642469047A8B2E0E7B3
:1061400010B50C46022806D0084605F0EFF90028E5
:1061500000D0A08910BD088810BD0622FDF72DBA19
:106160000A680260898881807047000010B50C4978
:10617000002203463A24985C000900F074FB087082
:10618000985C00F00F0000F06EFB48708C70C91C2A
:10619000521C062AEFDB002001F8010C004810BD5C
:1061A000914B00200844008840BA70474218405C78
:1061B0005378528852BA63F31F4242EA0060704734
:1061C000130A4354491C89B242547047130E435476
:1061D000491C89B2130C4354491C89B2130A435415
:1061E000491C89B24254704710B513F05DF880F035
:1061F000010010BD10B51AF069F9022801D3012081
:1062000010BD002010BD000010B50446FDF7AAFC2B
:1062100003480188A1430180BDE81040FDF7B8BCE8
:106220005003002010B503F089FCBDE810400120A8
:1062300000F008B810B5012100F0E0FCBDE8104006
:1062400005F0D4B810B50446FDF78CFC034801886E
:1062500021430180BDE81040FDF79ABC50030020A7
:1062600003480078C00701D11AF06ABA70470000ED
:106270005003002002480068816A0248006808470D
:10628000040000201400002010B504460E480078D9
:10629000C00718D0FDF766FC4CB103210B4819F07C
:1062A0009BFF03F04DFC12F07FF80DF09BFB0120EB
:1062B000FFF7AAFF13F09AFA03201AF073FBBDE868
:1062C0001040FDF765BC10BD5003002061000300C5
:1062D00070B512480088F0B913F044F90D46044631
:1062E00040F2E241401A75F1000014D30C48406DB1
:1062F00088B91AF09FF870B91AF038FC40F2E242FF
:10630000821A71F1000206D3021B71EB050201D360
:106310002046294670BD0020014670BD5003002074
:10632000000011400149086070470000D8000020BB
:1063300010B50446082020800520608006F046F94C
:10634000A08002F0E9FDE08010BD0268134602E083
:106350008A4204D01268002AFAD10B6001607047AB
:1063600002E08A4205D010460268002AF9D10A608C
:1063700001607047006808B1002070470120704735
:1063800004E0884201D10120704700680028F8D15C
:1063900070470268816832B140680068884200D165
:1063A000086808B9704709B101207047002070479C
:1063B0000022C0E90021096881607047016851B17D
:1063C00041680A6881688A4203D141600968816036
:1063D00003E0826001E0012101608068704781680C
:1063E00009688160426811600021016070474FF0C8
:1063F000FF3351B107E002688A4203D109680160A6
:106400000020704710460028F5D11846704700005C
:1064100001490968C96A0847040000200149096860
:10642000096B084704000020FFF7F8BF7420FFF74E
:10643000EFBF10B50446006A06F031FE2046BDE805
:106440001040FFF7EBBF70B58020FFF7E1FF0400BD
:106450000CD040F2111006F0BFFE050008D08021DC
:106460002046FDF798F82046256270BD002070BDDB
:106470002046FFF7D3FFF9E77047FFF7CFBF502063
:10648000FFF7C6BFFFF7CABF1420FFF7C1BF2DE952
:10649000F04106460020984617460C4605463060F7
:1064A00005E02146304600F007F844446D1CBD422B
:1064B000F7DBBDE8F081000030B40268134607E066
:1064C0008B4204D1024630BC04A0FDF7BDBF1B685F
:1064D000002BF5D10A60016030BC704762747374A0
:1064E00061636B5F6D656D6F72795F706F6F6C5F0D
:1064F000667265653A20626C6F636B20257020665A
:106500007265656420747769636520666F722070B8
:106510006F6F6C2025700000016819B10A68026075
:106520000846704700207047FFF778BF0C20FFF740
:106530006FBF000000B589B00DF1080C019006484E
:10654000006805928CE80B00044909688A6969466D
:10655000904709B000BD00002C000020040000207E
:1065600013460A4601460A20FFF7E4BF13460A46CF
:1065700001460C20FFF7DEBF38B5154D286890F8AE
:10658000A00008B1552038BD4FF0FF30ADF8020033
:10659000ADF800000AE0684604F0F0F80446C08850
:1065A000162104F019F9204604F06AFD684604F04B
:1065B000C5F80028EFD1012004F018FC054804F0CC
:1065C000C3F90028DFD12A68012182F8A01038BD64
:1065D000B07D0202987E020202490069096849689A
:1065E00008470000040000200020704710B5044652
:1065F000006928B103490968C968884700202061FB
:10660000002010BD0400002070B5064D044600694E
:10661000296889688847296820694968BDE8704009
:10662000084700000400002070B516460D460446D9
:10663000FFF7DCFF04486560044A006821460368F0
:1066400030469847206170BD040000205D40000284
:10665000C1607047C0E9021270470000024900693A
:106660000968896808470000040000202DE9F0410E
:10667000074615480E4698460468154634F88E1F9E
:10668000A1F57F40FF381BD06288388800F0A6F95A
:10669000388062882188308800F0A0F93080E28854
:1066A000A188288800F09AF9288062892189B8F8A1
:1066B000000000F093F9A8F800000020BDE8F08188
:1066C0004FF0FF30FAE70000B07D020270B50C0019
:1066D000054601D0012000E000206A2206A1FEF755
:1066E00045FE284600F034F810B100206C602060B0
:1066F000286820602C6070BD6C6973745F62617380
:1067000069632E630000000070B50C00054601D0DF
:10671000012000E00020532207A1FEF727FE2846B3
:1067200000F016F808B12C6001E0686804600020F1
:106730006C60206070BD00006C6973745F6261738F
:1067400069632E6300000000002101604160704712
:10675000006808B10020704701207047006808B148
:106760000020704701207047016819B10A68026073
:1067700012B103E00022FAE70022426008467047A7
:1067800070B5054600680C4600B10120C32209A17E
:10679000FEF7ECFD206800B10120C42205A1FEF740
:1067A000E5FD696820680860606868600020206016
:1067B000606070BD6C6973745F62617369632E633E
:1067C000000000000448D0F8A81141F00201C0F810
:1067D000A81119F0BDBC00000000104070B50346C0
:1067E00000200246012513F80240002105FA01F6B7
:1067F000344201D0401C80B2491CC9B20829F5D3EB
:10680000521CD2B2052AEED370BD70B50446008981
:106810001BF0B8FD2521B0FBF1F201FB1201CA0803
:1068200001F00705A25C0123AB401A4201D00846E3
:1068300070BDE18841432046BDE87040C1F3074187
:1068400002F031BB30B504461068206010790D4667
:1068500000F01F0020712046FFF7C0FFE08085EAAE
:106860001540208130BD0A2801DA303003E00A38B3
:10687000062802DA4130C0B270473F20704770B539
:106880000446C08E88B0002822D0258F94F834307A
:10689000A2268DF800601A268DF80160A6890A46A6
:1068A000ADF80400ADF8082004F11C01ADF8026059
:1068B000ADF80650ADF80A30102203A8FCF744FEEC
:1068C000A1891C236A46A06800F0F0F90020E08648
:1068D00008B070BD06481144006800F2FF308142E4
:1068E00003D9012018600320704700207047000082
:1068F000E800002070B500F059F8264D2448686182
:10690000D5F80001800742D5FDF70CFC224CA068A9
:10691000224920F4F0400843A060206920F0800064
:106920002061A06920F00040A061E06840F0040010
:10693000C4F80C00D5F800018007FBD4606900F0B2
:10694000C04540F2C970804740F64D008047810540
:1069500004D440F4007040F60131884740F25160A1
:10696000804740F60D0080470D480543656120696A
:1069700020F078402061BFF34F8F0A4801680A4A2F
:1069800001F4E06111430160BFF34F8FFEE770BD7A
:10699000001F1F0000001040002010400028008051
:1069A000C7E8948A0CED00E00400FA050948016884
:1069B00041F4700101600848D0F8A81121F4C051D9
:1069C000C0F8A811D0F82C1141F08001C0F82C11AA
:1069D0007047000088ED00E00000104019B18842C7
:1069E00001D208467047002AFCD09042FAD91046DE
:1069F000704700000249CA6D82430243CA6570476E
:106A00000000114043688B4204D18068904201D15C
:106A100001207047002070473EB5194D174CA868FB
:106A2000006E28B900222021402020F0E1F8E86221
:106A300003220021012020F0DBF86861114A0E20BA
:106A400021688DE8070000230FA11048626820F03C
:106A500029FE2863A868006E00280ED11AF016FDE2
:106A6000084A034654320220A1688DE8070008A1B5
:106A70000848E26820F016FE68633EBD9C011240A3
:106A8000000000202C04002063000000193B0002DD
:106A900070000000F1140202F8B5174C154DA06803
:106AA000006E28B960682021426940209047E0626A
:106AB0006068006A8047606101200090E8680F49C3
:106AC00083006068002206690DA0B0472063A068BB
:106AD000006E00280CD11AF0D9FC0246002000906C
:106AE000E868094983006068056908A0A8476063F1
:106AF000F8BD00009C01124000000020193B00027C
:106B00006374726C00000000F1140202686F737409
:106B10000000000000204FF4FA5100BF401C8842E2
:106B2000FBDB704770B51D4606000C460ED002F028
:106B3000F3F9401CB04209DD20782968884205D16C
:106B40000622211D6868FCF738FD08B1002070BDE1
:106B5000C5E90264032070BD0248417A491C4172B4
:106B6000704700005001002010B5044603F0D4F82F
:106B7000002011F005FC12F063FB11F047FA08F059
:106B800023FD0DF03DFB14F0A7FA18F0DFFB002CFD
:106B900003D0BDE8104013F05CBB10BD70B50446D7
:106BA000B0F1A53F1AD0B4F1C33F17D001234FF481
:106BB000A06205211D2019F031FD0546B4F1F23F18
:106BC00009D0922206A10020FEF7D0FB2846BDE89E
:106BD000704019F095BE07202870F7E770BD0000DF
:106BE0006474626C652E630003484FF40031C16425
:106BF0004FF420318164704700001140F8B505461C
:106C00001B480E460021018011F0AEFC1EF06EFA0A
:106C100019F0ACFC684611F0EBFC0446009841F218
:106C2000E86140F64427884201D3012000E00020BB
:106C3000862210A1FEF79AFB3A462146002019F061
:106C400001FD009804F64421A0F6442082B2012000
:106C500019F0F8FC1EF0A0F93046FFF785FF002D73
:106C600004D02846BDE8F840FFF798BFF8BD000003
:106C700050030020647469702E63000009490120EC
:106C8000096809B1002070470749CA69002AF9D18B
:106C9000044A283212688968491E8A42F3D10220C8
:106CA00070470000280600204800002030B404008F
:106CB00003D0A44630BC0420604730BC70470000BD
:106CC0002DE9F04186B0984614460D460646002749
:106CD00002F02CF9002838D0011D03A8FFF768FB4B
:106CE0000CE003A8FFF76AFB0189A94206D14768B7
:106CF0004346224631460420B847012703A8FFF740
:106D000048FB0028EDD1002F1FD14246304602F04B
:106D10000DF9002819D00E480768002F15D0AC20B7
:106D20008DF8000009208DF8010014F8030B8DF890
:106D30000200D21EADF80350ADF805200B23CDF8AC
:106D400007406A4631460420B84706B0BDE8F081E6
:106D5000DC0000201CB5A0228DF8002003228DF855
:106D600001208289ADF802208DF8041081898068A5
:106D700005236A46FFF79AFF1CBD30B587B004466D
:106D8000A3250A988DF8005018258DF80150A58983
:106D9000ADF80410ADF806200146ADF80250ADF88C
:106DA000083010220DF10A00FCF7CEFBA1891A234E
:106DB0006A46A068FFF77AFF07B030BD10B586B00D
:106DC0000446A1208DF8000016208DF80100A0894E
:106DD000ADF80410ADF80200ADF8062010221946F7
:106DE00002A8FCF7B1FBA18918236A46A068FFF747
:106DF0005DFF06B010BD00002DE9F05F0024924653
:106E0000894605462746264626E000BF05EB840056
:106E1000B0F9021035F924001BF0E2FA834605EBC5
:106E20008800B0F9021035F928001BF0D9FAABEB55
:106E3000000043F6FF71884203DBA0F5FE40FF38F7
:106E400006E043F6FF71C84202DC47F6FF710844D2
:106E5000074404EB4904761C04EB0908D045D5DB54
:106E600097FBF6F0BDE8F09F2DE9F0434278044629
:106E7000901C89B00E46814206D009B0E548BDE8B5
:106E8000F043921CFDF7E2BA2178E3A0FDF7DEFAA9
:106E90002078DFF894834FF00009122875D00CDCBD
:106EA0000E2811D004DC052870D0082853D17BE0CF
:106EB0000F2835D010284ED199E0132852D03E2803
:106EC00071D0572847D185E1D8F80000A27845460F
:106ED00090F84A10D5A0FDF7B9FA6179DCA0FDF76A
:106EE000B5FA2968A07881F84A00DE49B4F80300B1
:106EF0000988884207D1002003F078FF296881F8CB
:106F0000A09004F043F82968B4F80300B1F87A10AF
:106F1000884218D12868C26BAAB1016C601D11E0CB
:106F2000D8F80020E178404682F84A10D8F80020CE
:106F3000A188B2F87A20914205D10168CA6B12B1DA
:106F4000096C601C9047D8F80020A2F87A90D8F815
:106F50000010C1F83C90D8F8000090F860000128BB
:106F60007ED043E10325002719E0635BAD1C625B23
:106F70001846AD1C03F0B2FB48B190F828109142BE
:106F80000AD3891A80F8281008E035E026E019466F
:106F9000B5A0FDF75BFA01E080F828907F1CA0788F
:106FA000B842E2DCD7E733E0B4F80350284603F0F8
:106FB00095FB0028CFD0A17849B961790029816972
:106FC00002D041F4004101E021F40041816100F070
:106FD0001DFC0146284603F065FCBCE7B4F803003D
:106FE00003F07CFB0028B6D007214174B3E703F01F
:106FF0009DFE03F0AFFEAEE7A0780028ABD1B4F859
:10700000030003F06BFB0028A5D0617A0174A2E7AE
:10701000A0780A2833D02EDC012830D004287DD077
:10702000062898D19E480078800694D434F8037FCF
:10703000384603F053FB05006088ADF81400A088C3
:10704000ADF81000E088ADF818002089ADF81C00FC
:10705000A4F10304A6D007AB06AA04A905A800E082
:10706000C0E0FFF703FB90B38E483B22394600BFD8
:1070700003F06AFC6FE7122871D0292892D1E078DA
:1070800000288FD1A788052F22D2D8F8000000EB66
:107090008705686910B9FFF7D6F96861050017D050
:1070A000EF800220C5F81890A874FFF79DFAE861F8
:1070B000E0792872294604F108001BF02BF905201D
:1070C0006874A0792874A0780A2805D010E047E0F9
:1070D000A08800F095F93EE7D4F80E00C5F87200DC
:1070E000608AA5F876006069A867208BA5F87C0007
:1070F000E0896887287C60B9D8F8001091F84810BA
:10710000E973D8F8000005F1090190F8480000F093
:1071100029FA2846FFF72AF8024600E010E0E9883D
:1071200061A0FDF793F903F093FBD8F8000090F805
:107130005600C0069ED5E98840F6B832624897E707
:10714000E07800284BD1A08803F0C8FA002846D088
:10715000A17980F87110012180F87010FBE610E031
:10716000BDF81800EB8FAA8FBDF81C108DE80F003A
:10717000BDF81030BDF814203946544803F0E4FB44
:10718000E9E620790828A6D2E17819B150A0FDF7E8
:107190005DF9E0E6B4F80520104603F09FFA0546D5
:1071A000217954A0FDF752F9D8F8000021798530F3
:1071B000095CE97349B1217968461DF06BFF05F15F
:1071C000090168461BF0A6F8C5E605F1090000F0C4
:1071D000DFF9C0E6608803F081FA0028BED109B06B
:1071E000BDE8F083B1B2204603F056FCB1B22046B0
:1071F00003F006FB2078052806D1B4F8030003F05D
:107200006DFA08B103F03CFF09B0BDE8F04303F0AC
:1072100009BE0000CC9D02024843493A4556454EFE
:10722000543A253032780000B07D0202434D445F6D
:10723000434F4D504C45544520636D6473206F6C33
:1072400064202575202D206E6577202575000000AF
:10725000636D645F636F6D70207374617475732008
:1072600025750000987E02026863695F6E756D6225
:1072700065725F636F6D706C657465645F70616388
:107280006B6574206C6973747320756E75736564B7
:1072900020636F6E2068616E646C65202575000048
:1072A000D8000020307F02024E657720636F6E6E3B
:1072B000656374696F6E3A2068616E646C65202541
:1072C000752C202573000000A07E0202387F020288
:1072D00061647620736574207465726D696E617483
:1072E0002064756520746F20636175736520307844
:1072F00025780A006164762068616E646C6572208E
:107300003078257820636F6E6E65637465642074D1
:107310006F20636F6E2068616E646C652030782525
:10732000780A000010B5044604F0D4F8204610BDD9
:1073300013460A460146014803F006BBE07F0202FD
:107340000246014803F000BBD87E020230B50C466D
:10735000054689B01946104600F074FA00280CD191
:10736000694628461AF0C4FF04A920461AF0C0FF57
:1073700004AA6946024803F0E7FA09B030BD0000EC
:10738000087F0202014803F0DFBA0000D07E02024B
:10739000014803F0D9BA0000907F0202014803F0CF
:1073A000D3BA0000F07F02020A460146014803F00A
:1073B000CBBA0000307F02027FB50DF1200C9CE8B3
:1073C00070008DE8780013460A460146024803F033
:1073D000BBFA04B070BD0000387F0202014803F020
:1073E000B3BA0000C07E020208B5009313460A46F5
:1073F0000146024803F0A8FA08BD0000147E02020C
:10740000132100F001B8000010B50A46034603F04E
:1074100065F938B1062141741946054803F094FA1C
:10742000002010BD0021184603F0D6F9F8E700004F
:10743000887E020238B54FF0FF30ADF80200ADF89B
:10744000000006250DE0684603F098F90446407CEC
:10745000062806D0E1881322054803F075FA00B922
:107460006574684603F06AF90028ECD138BD000065
:10747000887E02022DE9FF4F85B0DFF89C80DDE9B0
:1074800012698A460A20002400EB06119B46274613
:10749000B8F8000003AA02F0FFFF050001D00121A7
:1074A0000FE0562009B0BDE8F08F00BF04EBC40226
:1074B00019F81220521E01FA02F03843641CC7B2B8
:1074C000E4B2B442F2D30798CDE9000B02975346D9
:1074D000D8F804102846059A03F0F7F8C7B200243C
:1074E0000DE000BF04EBC40109EB4101E8191022D3
:1074F000891CFCF729F81037641CFFB2E4B2B442CF
:10750000F0D306494046096881F848A02946039A05
:1075100003F070FD0020C5E7C07F0202B07D0202CB
:1075200010B500F08FF9002804D1BDE810400248E2
:1075300003F00ABA10BD0000107F02020248006882
:1075400090F87C0070470000B07D02020449096891
:1075500051F88E2F02604A684260896881607047E6
:10756000B07D02021CB50C4620B1FF2168461DF01B
:1075700091FD02E068461DF0A3FD214668461AF021
:10758000C9FE1CBD0146014803F0DEB9F87E0202C7
:1075900001460020FFF7E6BF10B50446014604A0EF
:1075A000FCF754FF022C01D9012010BD002010BDB2
:1075B0006761705F6D69746D5F70726F746563741D
:1075C000696F6E5F72657175697265645F666F720F
:1075D0005F73656375726974795F6C6576656C203D
:1075E000257500007FB50DF1200C9CE870008DE83A
:1075F000780013460A460146024803F0A5F904B094
:1076000070BD0000C87F0202014803F09DB9000070
:10761000D07F020213460A460146014803F094B99E
:10762000047E020213460A460146014803F08CB963
:10763000FC7D02021CB5049CCDE9003413460A46C9
:107640000146024803F080F91CBD00000C7E0202D6
:107650000146014803F078B9D87F02020448817AD4
:10766000012903D1022181721CF00EBE7047000077
:1076700050010020074810B5426C40F282210648B4
:10768000FEF7D2FF0448FEF7A7FFBDE81040FFF762
:10769000E5BF000050010020CC4D002010B50022B5
:1076A00007490848FEF7D6FF074840F28221426C9E
:1076B0000448FEF7B9FFBDE810400248FEF78CBF52
:1076C00075760002CC4D002050010020014803F0E7
:1076D0003BB90000B87E0202014803F035B9000052
:1076E000EC7D0202014803F02FB90000F87F02028E
:1076F0000146014803F028B9487F020201460148CB
:1077000003F022B9007F02020146014803F01CB9D0
:10771000907E02020146014803F016B9A87E0202DB
:10772000014803F011B90000C87E02020246014878
:1077300003F00AB9E07E02022DE9F0410E46074649
:1077400002F0CCFF050010D0384600F055F8044692
:107750000246314608A0FCF779FEB44207D3214621
:107760003846BDE8F04103F09DB80121F8E7AE745A
:10777000BDE8F04103F056BB6761705F72657175DB
:107780006573745F73656375726974795F6C657630
:10779000656C2025752C2063757272656E74206C83
:1077A0006576656C202575000146014803F0CCB86C
:1077B000887F020213460A460146014803F0C4B816
:1077C000E87F020213460A460146014803F0BCB8AE
:1077D000247E0202F0B585B00DF1280C9CE8F00083
:1077E0008DE8F80013460A460146024803F0ACF85B
:1077F00005B0F0BD347E020210B502F06FFF18B183
:10780000BDE8104000F002B8012010BD10B1008B9F
:10781000000401D401207047022070470220704705
:107820000A460146014803F08FB80000607F02025B
:1078300000B101200249096881F87C00704700000E
:10784000B07D0202034A1368586310688163002008
:1078500070470000B07D0202014909684864704722
:10786000B07D02021CB5049CCDE9003413460A46E3
:107870000146024803F068F81CBD0000DC7D0202EE
:107880000A460146014803F05FB80000E47D0202A9
:107890002DE9FE4F124E1746884681461D46308818
:1078A00002AA591DDDF830A002F0F6FD040014D044
:1078B000CDE9007543464A46716802F006FFC0B242
:1078C00020442A465146FBF73FFE21463046029AA5
:1078D00003F090FB0020BDE8FE8F5620FBE7000080
:1078E000CC7D02022DE9FC47104D16460F4680461E
:1078F0009946288801AA311D02F0CEFD040013D05C
:1079000000963B464246696802F0DFFEC0B2204462
:1079100032464946FBF718FE21462846019A03F0F5
:1079200069FB0020BDE8FC875620FBE7D47D0202FE
:1079300004490268096841F88E2F42684A608068ED
:1079400088607047B07D02020A460146014802F095
:10795000FBBF0000BC7D02022DE9FF5F144DDDE995
:107960000E6B9046894682461F46288803AA711DE1
:1079700002F092FD040018D0CDF80080CDE9017628
:107980004B4652462046696802F09FFEC0B2204432
:1079900032465946FBF7D8FD21462846039A03F0A4
:1079A00029FB002004B0BDE8F09F5620FAE7000054
:1079B000B47D02022DE9FF5F144DDDE90E6B9046A8
:1079C000894682461F46288803AAB11D02F064FD3D
:1079D000040018D0CDF80080CDE901764B46524620
:1079E0002046696802F071FEC0B220443246594612
:1079F000FBF7AAFD21462846039A03F0FBFA002074
:107A000004B0BDE8F09F5620FAE70000C47D0202F2
:107A10000AB944F2902213460A460146014802F090
:107A200093BF0000407F020213460A460146014808
:107A300002F08ABF507F020208B50B460092024650
:107A40000021024800F062F808BD0000707F0202C9
:107A50002DE9FC47184F884691460446022101EB68
:107A60008801388801AA02F017FD060007D04346B6
:107A70002246796802F029FEC5B2002413E05620A0
:107A8000BDE8FC8704EB440009EB40010A79009251
:107A90004B8819F81020701908A102F016FE2D1D50
:107AA000641CEDB2E4B24445ECD331463846019A49
:107AB00003F0A0FA0020E3E7807F020231323100B8
:107AC0002DE9F04F8DB00DF1640C179C9CE8E04F50
:107AD000DFF830C0DCF800C084448CF885400DF13C
:107AE000100C8CE8E04F169E189DCDE90036134629
:107AF0000A4601460448CDE9024502F025FF0DB0D3
:107B0000BDE8F08FB07D0202687F02022DE9FC47DC
:107B10001C460A9D174688468146F72B26D9F72032
:107B2000CDE900050B4601223946484602F00CFF1C
:107B3000002823D1F73CA4B2F73515E0F72C01D388
:107B4000F72600E02646A01BCDE900650404240CBE
:107B500001D0002200E0022243463946484602F0A6
:107B6000F3FE00280AD13544002CE7D14346032216
:107B700039464846CDE9004502F0E6FEBDE8FC87FF
:107B800008B5009313460A460146024802F0DCFE9F
:107B900008BD0000B87F02022DE9FC4716460F46DB
:107BA000DFF88C8002EB8601824699460024B8F803
:107BB000000001AAC91C02F06FFC050002D00020E1
:107BC00001220EE05620BDE8FC8700BF00EB400319
:107BD00019F813305B1E02FA03F12143401CCCB2AA
:107BE000C0B2B042F2D300943B4652462846D8F881
:107BF000041002F06AFDC7B200240FE004EB440158
:107C000009EB41008188009143884278E81909A175
:107C100002F05BFD7F1D641CFFB2E4B2B442EDD301
:107C200029464046019A03F0E5F90020CBE7000021
:107C3000B07F02023132320008B50B460092024694
:107C400000210248FFF762FF08BD0000787F0202B2
:107C50000A460146014802F077BE0000F07E0202AB
:107C60002DE9F843194F15460C468046F82923D9CB
:107C70000146F82301223846009502F065FE0028EF
:107C800021D1F83CA4B2F83514E0F82C01D3F82641
:107C900000E02646A01B0404240C009501D000221D
:107CA00000E0022233464146384602F04DFE0028ED
:107CB00009D13544002CE8D12346032241463846F9
:107CC000009502F041FEBDE8F8830000A07F0202AB
:107CD0000A460146014802F037BE0000A87F0202B2
:107CE00008B5009313460A460146024802F02CFEEE
:107CF00008BD0000987F02020A460146014802F0D2
:107D000023BE0000F47D02021CB5049CCDE90034C2
:107D100013460A460146024802F016FE1CBD00004A
:107D2000587F02020146014802F00EBEB07E0202F8
:107D30000249096881F8490070470000B07D0202DD
:107D40002DE9FF4F87B01C46DDE91A01DDE9186512
:107D5000DDE91687DDE914A99346FFF773FD0028D6
:107D60000DD1CDE9004ACDE90259CDF81080CDE919
:107D70000576DDE907125B46024802F0E5FD0BB02F
:107D8000BDE8F08F1C7E0202014802F0DDBD00005C
:107D9000447E020208B5009313460A460146024893
:107DA00002F0D2FD08BD00002C7E0202F0B587B0C3
:107DB0000DF1300E9EE8F0108DE8F81013460A46DB
:107DC0000146024802F0C0FD07B0F0BD3C7E020251
:107DD0002DE9FF410D46DDE90A4780460C9E02F081
:107DE0007DFC002806D0007C38B12946404600942E
:107DF00004F01DFD04B0BDE8F08103968DE8980005
:107E000013462A464146024802F09EFDF2E7000072
:107E1000E87E020208B59200921C0B4600920146D1
:107E20000722024802F090FD08BD00004C7E0202CD
:107E30002DE9F04788B04FF00009DFF870A41D4627
:107E400014460F46CDF8089004281DD0082825D1E7
:107E500020781B2825D01D2833D0384601F066F83D
:107E6000029000281AD021786E1E4FF001080D29CB
:107E70007ED02CDC0C2938D2DFE801F037F93752FC
:107E800037F837F737A937F62178782906D1DAF8A5
:107E900000600EB13946B04700F0BEFC08B0BDE846
:107EA000F087B4F80160DD1E3146A720D21C1AF01D
:107EB000CBFB0246ED1CABB231463846FEF700FF65
:107EC000ECE702A9384619F057FB0298C9E71729D1
:107ED0007AD006DC0F2978D0112953D0132904D188
:107EE00038E1192972D01D295BD0F1A0FCF7ADFA59
:107EF00020788DF80C8002998DF80D0006228DF8FF
:107F00000E908DF810208DF80F90CDF80090CDF8E0
:107F100004908889052303AA042104F05BFEBBE7D3
:107F2000B4F8014004F052FB01468C4200D22146D5
:107F30000298C18280F81880DAF8004084B1AB2141
:107F40008DF8001004218DF801108189ADF8021020
:107F5000C18AADF80410818906236A460420A0472F
:107F60003846FEF747F8DD480078800794D400E0F3
:107F7000F8E002980022C18A8089091D89B2FFF7C2
:107F800047FD89E70178022986D12A4621461AF061
:107F900071F96078029B281A204401224188184612
:107FA000A6E0B4F80160E21C3146A820ED1E1AF0EC
:107FB0004BFBED1C0246ABB231463846FEF780FE65
:107FC000029981F8518067E7FCE03AE12CE1017801
:107FD0000C291AD010DC062901D008299FD12A4685
:107FE00021461AF0F9F82946204600F0A9FF01467B
:107FF00002981DF0CFFD4FE7142939D024298ED1E6
:108000006188A0F84C1025210BE094F80180B8F1AC
:10801000070F08D261888185A1880186E1884186A1
:108020000D21017038E7022717E000BFE019029E1A
:1080300034F807904188318681887186C18803A809
:108040001DF0A4FF03A80090738E328E494630467F
:10805000FEF793FE07EB080087B2AF42E6D36178E4
:108060000298691A615A42E01AE04DE062E0F1E0DC
:10807000677800210226A7F102090CE034F8068097
:10808000A2191FFA89F34146921C02981AF095F83A
:10809000F019414686B2AE42F0D31322029827E08F
:1080A00001780E2915D0102925D028298BD100F070
:1080B00049FA029D621CA920298F1AF0C5FA0246CE
:1080C0000836B3B2A989A868FEF7F0FD002102982E
:1080D000E9E003A9601C1AF00BF9029803AA818D4C
:1080E0000092438E028EFEF748FE0298818D0B228D
:1080F0001DF070FDD0E600F025FA0298B3B2621CC4
:10810000018F1AF05AF8E1E74FF004084FF6FF77B5
:10811000012609E0A019A15B478802983A4600F1C0
:108120001C03FEF74BFE4644AE42F3DB3946032206
:108130000298DDE761780423022900D11223E91AAD
:10814000665AAD1EAAB2A11C1AF002F831460922E5
:108150000298CDE70178182903D0262901D02C29CF
:10816000C8D18EE06D1E0178ADB26D1DB6B2122978
:1081700016D02A29BED1018F428F0746631CAA2040
:1081800000961AF06FFA020004D0ABB2B989B86851
:10819000FEF78CFD3246292102981DF0E3FC7BE6B8
:1081A000018F428F0746631CA62000961AF05AFAE8
:1081B000020004D0ABB2B989B868FEF777FD324649
:1081C0001121E9E701781A2910D01C291AD02E298B
:1081D00012D032298ED100F0B5F92A4621460298F4
:1081E00003F0BAF900288ED17E2170E7B4F80310AD
:1081F00041871D22192110E0B4F8031041872F2276
:108200002D210AE02A46214603F0A6F940B1029842
:10821000B4F803101D2241871B211DF0CAFC3BE668
:1082200002992120087037E601781E2929D02029DB
:1082300027D0222902D03029B1D122E000F082F9E2
:10824000D2E701781629AAD1B3B2621C002119F035
:10825000B4FF1CE021790A2910D10278082A13D032
:1082600006DC022A0DD0042A0BD0062A06D10BE028
:108270000A2A06D00C2A04D0142A0AD000F0BBFA2D
:108280000AE600F05FF921E7C18DFEF7F8FA0298DF
:10829000F7E700F057F90298818D028E914201D1E3
:1082A0000A2100E00021FEF755FDF5E5DC00002085
:1082B0004154542048616E646C65722C20756E6860
:1082C000616E646C656420726573706F6E73652097
:1082D000747970652030782530327800D80000201D
:1082E00038B50A4604466946104619F08BF900284D
:1082F00006D100981F218460017000F08DFA0020E3
:1083000038BD38B5144605460A4600200090694637
:10831000104619F06BF9002817D16088A1888842AF
:1083200004D100210098FEF715FD0DE0009800F043
:10833000C3FC009885606188491C8185A188C1853E
:108340000921017000F068FA002038BDF8B5154623
:108350000A4606461C4669461046069F19F052F921
:10836000002814D100980121102286608585C485DB
:1083700080F850100024448339461C30FBF7E4F8A1
:1083800000980721C486017000F046FA0020F8BD6D
:10839000F8B516460A4607461D4669461046069C2D
:1083A00019F030F9002813D10098012187608685E3
:1083B000C58580F85010448321461C301DF0E6FD31
:1083C00000980021C1860721017000F025FA0020E5
:1083D000F8BDF8B515460A4606461C4669461046DD
:1083E00019F010F900280CD10098002186608585CD
:1083F000C48580F85010C1860521017000F00CFA88
:108400000020F8BD38B50A4604466946104619F002
:10841000F9F800280CD1009801214FF6FF72846012
:108420008185C28501700021418300F0F5F90020AB
:1084300038BD38B515460A4604466946104619F057
:10844000E1F8002813D10098012110228460818571
:108450004FF6FF71C1850021418329461C30FBF78F
:1084600073F800990320087000F0D6F9002038BD99
:1084700038B514460A4605466946104619F0C2F852
:10848000002811D100980121856081854FF6FF7188
:10849000C185032100F81A1B214620F8024B1DF06C
:1084A00075FD00F0B9F9002038BDF8B50D4600247F
:1084B00006466946009419F099F8002804D10098FE
:1084C000017E012901D09520F8BD04762946304669
:1084D000FDF7D8F80020F8BD38B50A4604466946CD
:1084E000104619F08FF8002806D100981D218460ED
:1084F000017000F091F9002038BDF8B515460A4624
:1085000006461C466946104619F07CF8002808D13A
:1085100000980B2186608585C485017000F07CF988
:108520000020F8BD00B50A4600F000FD10B1017E44
:10853000012903D017201080952000BDC08A10802B
:10854000002000BD10B5002101700446818904A0FF
:10855000FBF77BFF04F16000BDE81040FEF746B872
:108560004741545420636C69656E742074696D656D
:108570006F75742073746F702C2068616E646C6505
:10858000203078253032780070B504281AD1107860
:10859000052813D1B2F80350284600F0C7FC0400A8
:1085A0000CD01F2100F027F92046FFF7CBFF06492A
:1085B000002041F825002046FDF736FFBDE8704059
:1085C00000F02AB970BD0000A44B0020064910B588
:1085D00004484860084601F051FFBDE810400348D8
:1085E000FCF72CBF89850002E0000020317E0002EC
:1085F00008B500210091694618F0F8FF08B1002085
:1086000008BD012008BD70B504460D46104600F0B7
:108610008DFC002807D0656023812146BDE87040AD
:10862000001DFDF792BE70BD2DE9F84315460A46C0
:10863000DDE9087806461C466946104618F0E2FF58
:1086400000280BD1009831218660058787874487F1
:10865000C0F84080017000F0DFF80020BDE8F8832A
:1086600038B514460A4605466946104618F0CAFF52
:10867000002807D10098272185600487017000F049
:10868000CBF8002038BD0023AFF30080F8B51546C5
:108690000A4606461C466946104618F0B3FF0028F5
:1086A00008D100982921866005874487017000F071
:1086B000B3F80020F8BD0023AFF30080F8B51546ED
:1086C0000A4606461C466946104618F09BFF0028DD
:1086D00008D100981121866005874487017000F059
:1086E0009BF80020F8BDF8B514460A4606461D461C
:1086F0006946104618F086FF002809D10098152118
:108700008660A0F844408564017000F085F8002080
:10871000F8BD38B514460A4605466946104618F0B5
:1087200071FF002809D100980021856004874187E6
:108730000F21017000F070F8002038BDF8B5154623
:108740000A4606461C4669461046069F18F05AFF20
:10875000002812D100980021102286608585C485EA
:1087600005864486418339461C30FAF7EDFE0099B0
:108770001320087000F050F80020F8BDF8B5154639
:108780000A4607461C4669461046069E18F03AFF00
:10879000002810D10098314687608585C4850586FC
:1087A000448646831C301DF0F1FB009913200870AD
:1087B00000F032F80020F8BD014908607047000061
:1087C000DC000020F8B515460A4606461C466946F8
:1087D0001046069F18F016FF00280BD100980021C4
:1087E00086600587848741871B210764017000F03C
:1087F00013F80020F8BD70B5044600780D46002837
:1088000008D02046FFF79EFE29462046BDE870406E
:10881000FEF7A0BA70BD00002DE9F04F002789B027
:108820004FF01E094FF0040A4FF0020B3D464FF087
:108830000808CE4850F82740002C70D0A089FCF7DB
:10884000F7FD40B12278217EC9A0FBF7FEFD207E16
:10885000012864D105E0A08909B0BDE8F04FFCF71C
:10886000EABD94F8510050B184F85150A089012319
:108870008DF80890009502AA042101958CE02078DB
:10888000172801D02B2818D1204618F095FAA18F6F
:10889000C01E884211DA204618F08EFA0246A18FD7
:1088A000C1A0FBF7D2FD2046FFF74CFE09B02046E1
:1088B000BDE8F04F0D21FEF74DBA606D04F034FBBA
:1088C00006462178C3A0FBF7C0FD2078362826D2C3
:1088D000DFE800F09E1B9E269E469E499E519E65A7
:1088E0009E719E759E779E799EA39EB69EB89EBCF5
:1088F0009EBE9EC19EC39ECB9EED9ED39EDD9EE5F9
:108900009EFE9EFC9EBA9EFB9EFA84F800B0E08D0F
:108910000090A38DA2894FF42051102048E077E009
:1089200084F800A0608B4FF4205530B1ADF81C00E6
:10893000E18D07AA8DE8060809E003A904F11C00EF
:1089400019F0D6FCE08D102203A98DE80700A38D55
:10895000A28929460620FCF7C0FE09B0BDE8F08FC9
:108960000620207001E084F8008009B02046BDE8B0
:10897000F04F19F0CCBD84F80080A689A18DE08D60
:108980008DF808A0ADF80910ADF80B00009505238F
